{"src/contracts/HemaHope.sol":{"HemaHope":{"abi":[{"inputs":[],"stateMutability":"nonpayable","type":"constructor"},{"anonymous":false,"inputs":[{"indexed":true,"internalType":"address","name":"campaignAddress","type":"address"}],"name":"CampaignClosed","type":"event"},{"anonymous":false,"inputs":[{"indexed":true,"internalType":"address","name":"campaignAddress","type":"address"},{"indexed":false,"internalType":"string","name":"name","type":"string"}],"name":"CampaignCreated","type":"event"},{"anonymous":false,"inputs":[{"indexed":true,"internalType":"address","name":"campaignAddress","type":"address"},{"indexed":true,"internalType":"address","name":"donor","type":"address"},{"indexed":false,"internalType":"string","name":"itemDescription","type":"string"}],"name":"PhysicalItemReceived","type":"event"},{"inputs":[{"internalType":"uint256","name":"","type":"uint256"}],"name":"campaigns","outputs":[{"internalType":"contract Campaign","name":"","type":"address"}],"stateMutability":"view","type":"function"},{"inputs":[{"internalType":"address","name":"campaignAddress","type":"address"}],"name":"closeCampaign","outputs":[],"stateMutability":"nonpayable","type":"function"},{"inputs":[{"internalType":"string","name":"name","type":"string"},{"internalType":"string","name":"description","type":"string"},{"internalType":"string","name":"targetItems","type":"string"}],"name":"createPhysicalItemCampaign","outputs":[],"stateMutability":"nonpayable","type":"function"},{"inputs":[],"name":"isActive","outputs":[{"internalType":"bool","name":"","type":"bool"}],"stateMutability":"view","type":"function"},{"inputs":[],"name":"owner","outputs":[{"internalType":"address","name":"","type":"address"}],"stateMutability":"view","type":"function"},{"inputs":[{"internalType":"address","name":"campaignAddress","type":"address"},{"internalType":"address","name":"donor","type":"address"},{"internalType":"string","name":"itemDescription","type":"string"}],"name":"receivePhysicalItem","outputs":[],"stateMutability":"nonpayable","type":"function"},{"inputs":[{"internalType":"bool","name":"active","type":"bool"}],"name":"setActive","outputs":[],"stateMutability":"nonpayable","type":"function"}],"evm":{"bytecode":{"linkReferences":{},"object":"608060405234801561001057600080fd5b50600080546001600160a01b0319163317905561149a806100326000396000f3fe60806040523480156200001157600080fd5b5060043610620000875760003560e01c80638da5cb5b11620000625780638da5cb5b14620000f85780638f497a14146200010c5780639335e5ab1462000123578063acec338a146200013a57600080fd5b8063141961bc146200008c57806322f3e2d414620000c057806367f5f32d14620000df575b600080fd5b620000a36200009d366004620004cc565b62000151565b6040516001600160a01b0390911681526020015b60405180910390f35b600254620000ce9060ff1681565b6040519015158152602001620000b7565b620000f6620000f036600462000503565b6200017c565b005b600054620000a3906001600160a01b031681565b620000f66200011d366004620005d3565b62000244565b620000f66200013436600462000639565b62000324565b620000f66200014b366004620006c1565b6200047e565b600181815481106200016257600080fd5b6000918252602090912001546001600160a01b0316905081565b6000546001600160a01b03163314620001b25760405162461bcd60e51b8152600401620001a990620006e5565b60405180910390fd5b6000819050806001600160a01b031663d7557f186040518163ffffffff1660e01b8152600401600060405180830381600087803b158015620001f357600080fd5b505af115801562000208573d6000803e3d6000fd5b50506040516001600160a01b03851692507f2cc6b7f4a64721896dc69033b18d6cafb9edb171b7266f50cf6167dfaf2c9fe09150600090a25050565b60405183906000906200025e908590859060200162000751565b60408051601f19818403018152908290526303b08b2760e11b825291506001600160a01b03831690630761164e906200029c908490600401620007e7565b600060405180830381600087803b158015620002b757600080fd5b505af1158015620002cc573d6000803e3d6000fd5b50505050836001600160a01b0316856001600160a01b03167f2bd4e7820adb831c0d45424aaee309ed6c7db3ed43aa487c518ff065a540357c85604051620003159190620007e7565b60405180910390a35050505050565b6000546001600160a01b03163314620003515760405162461bcd60e51b8152600401620001a990620006e5565b6000838383336040516200036590620004be565b620003749493929190620007fc565b604051809103906000f08015801562000391573d6000803e3d6000fd5b506001805480820182556000919091527fb10e2d527612073b26eecdfd717e6a320cf44b4afac2b0732d9fcbe2b7fa0cf60180546001600160a01b0319166001600160a01b038316908117909155604051919250907f17dd0b5f0975f4651b002ed3b016428bae979f5704d8b2473931b2312185c05a9062000415908790620007e7565b60405180910390a260405162461bcd60e51b815260206004820152602f60248201527f53756363657373206d6573736167653a2043616d706169676e2063726561746560448201526e321039bab1b1b2b9b9b33ab6363c9760891b6064820152608401620001a9565b6000546001600160a01b03163314620004ab5760405162461bcd60e51b8152600401620001a990620006e5565b6002805460ff1916911515919091179055565b610c0f806200085683390190565b600060208284031215620004df57600080fd5b5035919050565b80356001600160a01b0381168114620004fe57600080fd5b919050565b6000602082840312156200051657600080fd5b6200052182620004e6565b9392505050565b634e487b7160e01b600052604160045260246000fd5b600082601f8301126200055057600080fd5b813567ffffffffffffffff808211156200056e576200056e62000528565b604051601f8301601f19908116603f0116810190828211818310171562000599576200059962000528565b81604052838152866020858801011115620005b357600080fd5b836020870160208301376000602085830101528094505050505092915050565b600080600060608486031215620005e957600080fd5b620005f484620004e6565b92506200060460208501620004e6565b9150604084013567ffffffffffffffff8111156200062157600080fd5b6200062f868287016200053e565b9150509250925092565b6000806000606084860312156200064f57600080fd5b833567ffffffffffffffff808211156200066857600080fd5b62000676878388016200053e565b945060208601359150808211156200068d57600080fd5b6200069b878388016200053e565b93506040860135915080821115620006b257600080fd5b506200062f868287016200053e565b600060208284031215620006d457600080fd5b813580151581146200052157600080fd5b60208082526026908201527f4f6e6c7920746865206f776e65722063616e20706572666f726d20746869732060408201526530b1ba34b7b760d11b606082015260800190565b60005b83811015620007485781810151838201526020016200072e565b50506000910152565b6602237b737b91d160cd1b81526bffffffffffffffffffffffff198360601b16600782015274010169024ba32b6902232b9b1b934b83a34b7b71d1605d1b601b82015260008251620007ab8160308501602087016200072b565b919091016030019392505050565b60008151808452620007d38160208601602086016200072b565b601f01601f19169290920160200192915050565b602081526000620005216020830184620007b9565b608081526000620008116080830187620007b9565b8281036020840152620008258187620007b9565b905082810360408401526200083b8186620007b9565b91505060018060a01b03831660608301529594505050505056fe60806040523480156200001157600080fd5b5060405162000c0f38038062000c0f83398101604081905262000034916200015c565b60016200004285826200029e565b5060026200005184826200029e565b5060036200006083826200029e565b50600080546001600160a01b0319166001600160a01b039290921691909117905550506005805460ff19166001179055506200036a565b634e487b7160e01b600052604160045260246000fd5b600082601f830112620000bf57600080fd5b81516001600160401b0380821115620000dc57620000dc62000097565b604051601f8301601f19908116603f0116810190828211818310171562000107576200010762000097565b816040528381526020925086838588010111156200012457600080fd5b600091505b8382101562000148578582018301518183018401529082019062000129565b600093810190920192909252949350505050565b600080600080608085870312156200017357600080fd5b84516001600160401b03808211156200018b57600080fd5b6200019988838901620000ad565b95506020870151915080821115620001b057600080fd5b620001be88838901620000ad565b94506040870151915080821115620001d557600080fd5b50620001e487828801620000ad565b606087015190935090506001600160a01b03811681146200020457600080fd5b939692955090935050565b600181811c908216806200022457607f821691505b6020821081036200024557634e487b7160e01b600052602260045260246000fd5b50919050565b601f8211156200029957600081815260208120601f850160051c81016020861015620002745750805b601f850160051c820191505b81811015620002955782815560010162000280565b5050505b505050565b81516001600160401b03811115620002ba57620002ba62000097565b620002d281620002cb84546200020f565b846200024b565b602080601f8311600181146200030a5760008415620002f15750858301515b600019600386901b1c1916600185901b17855562000295565b600085815260208120601f198616915b828110156200033b578886015182559484019460019091019084016200031a565b50858210156200035a5787850151600019600388901b60f8161c191681555b5050505050600190811b01905550565b610895806200037a6000396000f3fe608060405234801561001057600080fd5b506004361061009e5760003560e01c8063863559cf11610066578063863559cf14610126578063ca0cdea81461012e578063d7557f1814610151578063de2ed89314610159578063f8626af81461017057600080fd5b806306fdde03146100a35780630761164e146100c157806322f3e2d4146100d6578063481c6a75146100f35780637284e4161461011e575b600080fd5b6100ab610191565b6040516100b891906105a0565b60405180910390f35b6100d46100cf3660046105d0565b61021f565b005b6005546100e39060ff1681565b60405190151581526020016100b8565b600054610106906001600160a01b031681565b6040516001600160a01b0390911681526020016100b8565b6100ab610396565b6100ab6103a3565b6100e361013c366004610681565b60066020526000908152604090205460ff1681565b6100d46103b0565b61016260045481565b6040519081526020016100b8565b61018361017e3660046106aa565b6104ab565b6040516100b89291906106c3565b6001805461019e906106ef565b80601f01602080910402602001604051908101604052809291908181526020018280546101ca906106ef565b80156102175780601f106101ec57610100808354040283529160200191610217565b820191906000526020600020905b8154815290600101906020018083116101fa57829003601f168201915b505050505081565b60055460ff1661026f5760405162461bcd60e51b815260206004820152601660248201527543616d706169676e206973206e6f742061637469766560501b60448201526064015b60405180910390fd5b60008151116102ca5760405162461bcd60e51b815260206004820152602160248201527f4974656d206465736372697074696f6e206d7573742062652070726f766964656044820152601960fa1b6064820152608401610266565b600454604080518082018252338152602080820185815260008581526007909252929020815181546001600160a01b0319166001600160a01b03909116178155915190918291600182019061031f9082610778565b5050336000908152600660205260408120805460ff191660011790556004805492509061034b83610838565b9190505550336001600160a01b03167f4e0003e8905e47174fc8f04d0e185fe54ac6dbbda5d1c598f302ffa6a0c0e8988460405161038991906105a0565b60405180910390a2505050565b6002805461019e906106ef565b6003805461019e906106ef565b6000546001600160a01b031633146104245760405162461bcd60e51b815260206004820152603160248201527f4f6e6c79207468652063616d706169676e206d616e616765722063616e207065604482015270393337b936903a3434b99030b1ba34b7b760791b6064820152608401610266565b60055460ff166104765760405162461bcd60e51b815260206004820152601a60248201527f43616d706169676e20697320616c726561647920636c6f7365640000000000006044820152606401610266565b6005805460ff191690556040517fb49a509a88f868a6f6fce6bfa9c1e1a7faf4e371b9ee245a8695b03ac90680c490600090a1565b600760205260009081526040902080546001820180546001600160a01b0390921692916104d7906106ef565b80601f0160208091040260200160405190810160405280929190818152602001828054610503906106ef565b80156105505780601f1061052557610100808354040283529160200191610550565b820191906000526020600020905b81548152906001019060200180831161053357829003601f168201915b5050505050905082565b6000815180845260005b8181101561058057602081850181015186830182015201610564565b506000602082860101526020601f19601f83011685010191505092915050565b6020815260006105b3602083018461055a565b9392505050565b634e487b7160e01b600052604160045260246000fd5b6000602082840312156105e257600080fd5b813567ffffffffffffffff808211156105fa57600080fd5b818401915084601f83011261060e57600080fd5b813581811115610620576106206105ba565b604051601f8201601f19908116603f01168101908382118183101715610648576106486105ba565b8160405282815287602084870101111561066157600080fd5b826020860160208301376000928101602001929092525095945050505050565b60006020828403121561069357600080fd5b81356001600160a01b03811681146105b357600080fd5b6000602082840312156106bc57600080fd5b5035919050565b6001600160a01b03831681526040602082018190526000906106e79083018461055a565b949350505050565b600181811c9082168061070357607f821691505b60208210810361072357634e487b7160e01b600052602260045260246000fd5b50919050565b601f82111561077357600081815260208120601f850160051c810160208610156107505750805b601f850160051c820191505b8181101561076f5782815560010161075c565b5050505b505050565b815167ffffffffffffffff811115610792576107926105ba565b6107a6816107a084546106ef565b84610729565b602080601f8311600181146107db57600084156107c35750858301515b600019600386901b1c1916600185901b17855561076f565b600085815260208120601f198616915b8281101561080a578886015182559484019460019091019084016107eb565b50858210156108285787850151600019600388901b60f8161c191681555b5050505050600190811b01905550565b60006001820161085857634e487b7160e01b600052601160045260246000fd5b506001019056fea2646970667358221220b5154310e6a1aa3db5bc04dbe99398c2f77e53dd3a0b0f9957d0168a0470bc7964736f6c63430008140033a26469706673582212209ea5e7b97f4e386485058de4ebd8b4cc8a1939d8387ab8d519dacd8ec3735fed64736f6c63430008140033","opcodes":"PUSH1 0x80 PUSH1 0x40 MSTORE CALLVALUE DUP1 ISZERO PUSH2 0x10 JUMPI PUSH1 0x0 DUP1 REVERT JUMPDEST POP PUSH1 0x0 DUP1 SLOAD PUSH1 0x1 PUSH1 0x1 PUSH1 0xA0 SHL SUB NOT AND CALLER OR SWAP1 SSTORE PUSH2 0x149A DUP1 PUSH2 0x32 PUSH1 0x0 CODECOPY PUSH1 0x0 RETURN INVALID PUSH1 0x80 PUSH1 0x40 MSTORE CALLVALUE DUP1 ISZERO PUSH3 0x11 JUMPI PUSH1 0x0 DUP1 REVERT JUMPDEST POP PUSH1 0x4 CALLDATASIZE LT PUSH3 0x87 JUMPI PUSH1 0x0 CALLDATALOAD PUSH1 0xE0 SHR DUP1 PUSH4 0x8DA5CB5B GT PUSH3 0x62 JUMPI DUP1 PUSH4 0x8DA5CB5B EQ PUSH3 0xF8 JUMPI DUP1 PUSH4 0x8F497A14 EQ PUSH3 0x10C JUMPI DUP1 PUSH4 0x9335E5AB EQ PUSH3 0x123 JUMPI DUP1 PUSH4 0xACEC338A EQ PUSH3 0x13A JUMPI PUSH1 0x0 DUP1 REVERT JUMPDEST DUP1 PUSH4 0x141961BC EQ PUSH3 0x8C JUMPI DUP1 PUSH4 0x22F3E2D4 EQ PUSH3 0xC0 JUMPI DUP1 PUSH4 0x67F5F32D EQ PUSH3 0xDF JUMPI JUMPDEST PUSH1 0x0 DUP1 REVERT JUMPDEST PUSH3 0xA3 PUSH3 0x9D CALLDATASIZE PUSH1 0x4 PUSH3 0x4CC JUMP JUMPDEST PUSH3 0x151 JUMP JUMPDEST PUSH1 0x40 MLOAD PUSH1 0x1 PUSH1 0x1 PUSH1 0xA0 SHL SUB SWAP1 SWAP2 AND DUP2 MSTORE PUSH1 0x20 ADD JUMPDEST PUSH1 0x40 MLOAD DUP1 SWAP2 SUB SWAP1 RETURN JUMPDEST PUSH1 0x2 SLOAD PUSH3 0xCE SWAP1 PUSH1 0xFF AND DUP2 JUMP JUMPDEST PUSH1 0x40 MLOAD SWAP1 ISZERO ISZERO DUP2 MSTORE PUSH1 0x20 ADD PUSH3 0xB7 JUMP JUMPDEST PUSH3 0xF6 PUSH3 0xF0 CALLDATASIZE PUSH1 0x4 PUSH3 0x503 JUMP JUMPDEST PUSH3 0x17C JUMP JUMPDEST STOP JUMPDEST PUSH1 0x0 SLOAD PUSH3 0xA3 SWAP1 PUSH1 0x1 PUSH1 0x1 PUSH1 0xA0 SHL SUB AND DUP2 JUMP JUMPDEST PUSH3 0xF6 PUSH3 0x11D CALLDATASIZE PUSH1 0x4 PUSH3 0x5D3 JUMP JUMPDEST PUSH3 0x244 JUMP JUMPDEST PUSH3 0xF6 PUSH3 0x134 CALLDATASIZE PUSH1 0x4 PUSH3 0x639 JUMP JUMPDEST PUSH3 0x324 JUMP JUMPDEST PUSH3 0xF6 PUSH3 0x14B CALLDATASIZE PUSH1 0x4 PUSH3 0x6C1 JUMP JUMPDEST PUSH3 0x47E JUMP JUMPDEST PUSH1 0x1 DUP2 DUP2 SLOAD DUP2 LT PUSH3 0x162 JUMPI PUSH1 0x0 DUP1 REVERT JUMPDEST PUSH1 0x0 SWAP2 DUP3 MSTORE PUSH1 0x20 SWAP1 SWAP2 KECCAK256 ADD SLOAD PUSH1 0x1 PUSH1 0x1 PUSH1 0xA0 SHL SUB AND SWAP1 POP DUP2 JUMP JUMPDEST PUSH1 0x0 SLOAD PUSH1 0x1 PUSH1 0x1 PUSH1 0xA0 SHL SUB AND CALLER EQ PUSH3 0x1B2 JUMPI PUSH1 0x40 MLOAD PUSH3 0x461BCD PUSH1 0xE5 SHL DUP2 MSTORE PUSH1 0x4 ADD PUSH3 0x1A9 SWAP1 PUSH3 0x6E5 JUMP JUMPDEST PUSH1 0x40 MLOAD DUP1 SWAP2 SUB SWAP1 REVERT JUMPDEST PUSH1 0x0 DUP2 SWAP1 POP DUP1 PUSH1 0x1 PUSH1 0x1 PUSH1 0xA0 SHL SUB AND PUSH4 0xD7557F18 PUSH1 0x40 MLOAD DUP2 PUSH4 0xFFFFFFFF AND PUSH1 0xE0 SHL DUP2 MSTORE PUSH1 0x4 ADD PUSH1 0x0 PUSH1 0x40 MLOAD DUP1 DUP4 SUB DUP2 PUSH1 0x0 DUP8 DUP1 EXTCODESIZE ISZERO DUP1 ISZERO PUSH3 0x1F3 JUMPI PUSH1 0x0 DUP1 REVERT JUMPDEST POP GAS CALL ISZERO DUP1 ISZERO PUSH3 0x208 JUMPI RETURNDATASIZE PUSH1 0x0 DUP1 RETURNDATACOPY RETURNDATASIZE PUSH1 0x0 REVERT JUMPDEST POP POP PUSH1 0x40 MLOAD PUSH1 0x1 PUSH1 0x1 PUSH1 0xA0 SHL SUB DUP6 AND SWAP3 POP PUSH32 0x2CC6B7F4A64721896DC69033B18D6CAFB9EDB171B7266F50CF6167DFAF2C9FE0 SWAP2 POP PUSH1 0x0 SWAP1 LOG2 POP POP JUMP JUMPDEST PUSH1 0x40 MLOAD DUP4 SWAP1 PUSH1 0x0 SWAP1 PUSH3 0x25E SWAP1 DUP6 SWAP1 DUP6 SWAP1 PUSH1 0x20 ADD PUSH3 0x751 JUMP JUMPDEST PUSH1 0x40 DUP1 MLOAD PUSH1 0x1F NOT DUP2 DUP5 SUB ADD DUP2 MSTORE SWAP1 DUP3 SWAP1 MSTORE PUSH4 0x3B08B27 PUSH1 0xE1 SHL DUP3 MSTORE SWAP2 POP PUSH1 0x1 PUSH1 0x1 PUSH1 0xA0 SHL SUB DUP4 AND SWAP1 PUSH4 0x761164E SWAP1 PUSH3 0x29C SWAP1 DUP5 SWAP1 PUSH1 0x4 ADD PUSH3 0x7E7 JUMP JUMPDEST PUSH1 0x0 PUSH1 0x40 MLOAD DUP1 DUP4 SUB DUP2 PUSH1 0x0 DUP8 DUP1 EXTCODESIZE ISZERO DUP1 ISZERO PUSH3 0x2B7 JUMPI PUSH1 0x0 DUP1 REVERT JUMPDEST POP GAS CALL ISZERO DUP1 ISZERO PUSH3 0x2CC JUMPI RETURNDATASIZE PUSH1 0x0 DUP1 RETURNDATACOPY RETURNDATASIZE PUSH1 0x0 REVERT JUMPDEST POP POP POP POP DUP4 PUSH1 0x1 PUSH1 0x1 PUSH1 0xA0 SHL SUB AND DUP6 PUSH1 0x1 PUSH1 0x1 PUSH1 0xA0 SHL SUB AND PUSH32 0x2BD4E7820ADB831C0D45424AAEE309ED6C7DB3ED43AA487C518FF065A540357C DUP6 PUSH1 0x40 MLOAD PUSH3 0x315 SWAP2 SWAP1 PUSH3 0x7E7 JUMP JUMPDEST PUSH1 0x40 MLOAD DUP1 SWAP2 SUB SWAP1 LOG3 POP POP POP POP POP JUMP JUMPDEST PUSH1 0x0 SLOAD PUSH1 0x1 PUSH1 0x1 PUSH1 0xA0 SHL SUB AND CALLER EQ PUSH3 0x351 JUMPI PUSH1 0x40 MLOAD PUSH3 0x461BCD PUSH1 0xE5 SHL DUP2 MSTORE PUSH1 0x4 ADD PUSH3 0x1A9 SWAP1 PUSH3 0x6E5 JUMP JUMPDEST PUSH1 0x0 DUP4 DUP4 DUP4 CALLER PUSH1 0x40 MLOAD PUSH3 0x365 SWAP1 PUSH3 0x4BE JUMP JUMPDEST PUSH3 0x374 SWAP5 SWAP4 SWAP3 SWAP2 SWAP1 PUSH3 0x7FC JUMP JUMPDEST PUSH1 0x40 MLOAD DUP1 SWAP2 SUB SWAP1 PUSH1 0x0 CREATE DUP1 ISZERO DUP1 ISZERO PUSH3 0x391 JUMPI RETURNDATASIZE PUSH1 0x0 DUP1 RETURNDATACOPY RETURNDATASIZE PUSH1 0x0 REVERT JUMPDEST POP PUSH1 0x1 DUP1 SLOAD DUP1 DUP3 ADD DUP3 SSTORE PUSH1 0x0 SWAP2 SWAP1 SWAP2 MSTORE PUSH32 0xB10E2D527612073B26EECDFD717E6A320CF44B4AFAC2B0732D9FCBE2B7FA0CF6 ADD DUP1 SLOAD PUSH1 0x1 PUSH1 0x1 PUSH1 0xA0 SHL SUB NOT AND PUSH1 0x1 PUSH1 0x1 PUSH1 0xA0 SHL SUB DUP4 AND SWAP1 DUP2 OR SWAP1 SWAP2 SSTORE PUSH1 0x40 MLOAD SWAP2 SWAP3 POP SWAP1 PUSH32 0x17DD0B5F0975F4651B002ED3B016428BAE979F5704D8B2473931B2312185C05A SWAP1 PUSH3 0x415 SWAP1 DUP8 SWAP1 PUSH3 0x7E7 JUMP JUMPDEST PUSH1 0x40 MLOAD DUP1 SWAP2 SUB SWAP1 LOG2 PUSH1 0x40 MLOAD PUSH3 0x461BCD PUSH1 0xE5 SHL DUP2 MSTORE PUSH1 0x20 PUSH1 0x4 DUP3 ADD MSTORE PUSH1 0x2F PUSH1 0x24 DUP3 ADD MSTORE PUSH32 0x53756363657373206D6573736167653A2043616D706169676E20637265617465 PUSH1 0x44 DUP3 ADD MSTORE PUSH15 0x321039BAB1B1B2B9B9B33AB6363C97 PUSH1 0x89 SHL PUSH1 0x64 DUP3 ADD MSTORE PUSH1 0x84 ADD PUSH3 0x1A9 JUMP JUMPDEST PUSH1 0x0 SLOAD PUSH1 0x1 PUSH1 0x1 PUSH1 0xA0 SHL SUB AND CALLER EQ PUSH3 0x4AB JUMPI PUSH1 0x40 MLOAD PUSH3 0x461BCD PUSH1 0xE5 SHL DUP2 MSTORE PUSH1 0x4 ADD PUSH3 0x1A9 SWAP1 PUSH3 0x6E5 JUMP JUMPDEST PUSH1 0x2 DUP1 SLOAD PUSH1 0xFF NOT AND SWAP2 ISZERO ISZERO SWAP2 SWAP1 SWAP2 OR SWAP1 SSTORE JUMP JUMPDEST PUSH2 0xC0F DUP1 PUSH3 0x856 DUP4 CODECOPY ADD SWAP1 JUMP JUMPDEST PUSH1 0x0 PUSH1 0x20 DUP3 DUP5 SUB SLT ISZERO PUSH3 0x4DF JUMPI PUSH1 0x0 DUP1 REVERT JUMPDEST POP CALLDATALOAD SWAP2 SWAP1 POP JUMP JUMPDEST DUP1 CALLDATALOAD PUSH1 0x1 PUSH1 0x1 PUSH1 0xA0 SHL SUB DUP2 AND DUP2 EQ PUSH3 0x4FE JUMPI PUSH1 0x0 DUP1 REVERT JUMPDEST SWAP2 SWAP1 POP JUMP JUMPDEST PUSH1 0x0 PUSH1 0x20 DUP3 DUP5 SUB SLT ISZERO PUSH3 0x516 JUMPI PUSH1 0x0 DUP1 REVERT JUMPDEST PUSH3 0x521 DUP3 PUSH3 0x4E6 JUMP JUMPDEST SWAP4 SWAP3 POP POP POP JUMP JUMPDEST PUSH4 0x4E487B71 PUSH1 0xE0 SHL PUSH1 0x0 MSTORE PUSH1 0x41 PUSH1 0x4 MSTORE PUSH1 0x24 PUSH1 0x0 REVERT JUMPDEST PUSH1 0x0 DUP3 PUSH1 0x1F DUP4 ADD SLT PUSH3 0x550 JUMPI PUSH1 0x0 DUP1 REVERT JUMPDEST DUP2 CALLDATALOAD PUSH8 0xFFFFFFFFFFFFFFFF DUP1 DUP3 GT ISZERO PUSH3 0x56E JUMPI PUSH3 0x56E PUSH3 0x528 JUMP JUMPDEST PUSH1 0x40 MLOAD PUSH1 0x1F DUP4 ADD PUSH1 0x1F NOT SWAP1 DUP2 AND PUSH1 0x3F ADD AND DUP2 ADD SWAP1 DUP3 DUP3 GT DUP2 DUP4 LT OR ISZERO PUSH3 0x599 JUMPI PUSH3 0x599 PUSH3 0x528 JUMP JUMPDEST DUP2 PUSH1 0x40 MSTORE DUP4 DUP2 MSTORE DUP7 PUSH1 0x20 DUP6 DUP9 ADD ADD GT ISZERO PUSH3 0x5B3 JUMPI PUSH1 0x0 DUP1 REVERT JUMPDEST DUP4 PUSH1 0x20 DUP8 ADD PUSH1 0x20 DUP4 ADD CALLDATACOPY PUSH1 0x0 PUSH1 0x20 DUP6 DUP4 ADD ADD MSTORE DUP1 SWAP5 POP POP POP POP POP SWAP3 SWAP2 POP POP JUMP JUMPDEST PUSH1 0x0 DUP1 PUSH1 0x0 PUSH1 0x60 DUP5 DUP7 SUB SLT ISZERO PUSH3 0x5E9 JUMPI PUSH1 0x0 DUP1 REVERT JUMPDEST PUSH3 0x5F4 DUP5 PUSH3 0x4E6 JUMP JUMPDEST SWAP3 POP PUSH3 0x604 PUSH1 0x20 DUP6 ADD PUSH3 0x4E6 JUMP JUMPDEST SWAP2 POP PUSH1 0x40 DUP5 ADD CALLDATALOAD PUSH8 0xFFFFFFFFFFFFFFFF DUP2 GT ISZERO PUSH3 0x621 JUMPI PUSH1 0x0 DUP1 REVERT JUMPDEST PUSH3 0x62F DUP7 DUP3 DUP8 ADD PUSH3 0x53E JUMP JUMPDEST SWAP2 POP POP SWAP3 POP SWAP3 POP SWAP3 JUMP JUMPDEST PUSH1 0x0 DUP1 PUSH1 0x0 PUSH1 0x60 DUP5 DUP7 SUB SLT ISZERO PUSH3 0x64F JUMPI PUSH1 0x0 DUP1 REVERT JUMPDEST DUP4 CALLDATALOAD PUSH8 0xFFFFFFFFFFFFFFFF DUP1 DUP3 GT ISZERO PUSH3 0x668 JUMPI PUSH1 0x0 DUP1 REVERT JUMPDEST PUSH3 0x676 DUP8 DUP4 DUP9 ADD PUSH3 0x53E JUMP JUMPDEST SWAP5 POP PUSH1 0x20 DUP7 ADD CALLDATALOAD SWAP2 POP DUP1 DUP3 GT ISZERO PUSH3 0x68D JUMPI PUSH1 0x0 DUP1 REVERT JUMPDEST PUSH3 0x69B DUP8 DUP4 DUP9 ADD PUSH3 0x53E JUMP JUMPDEST SWAP4 POP PUSH1 0x40 DUP7 ADD CALLDATALOAD SWAP2 POP DUP1 DUP3 GT ISZERO PUSH3 0x6B2 JUMPI PUSH1 0x0 DUP1 REVERT JUMPDEST POP PUSH3 0x62F DUP7 DUP3 DUP8 ADD PUSH3 0x53E JUMP JUMPDEST PUSH1 0x0 PUSH1 0x20 DUP3 DUP5 SUB SLT ISZERO PUSH3 0x6D4 JUMPI PUSH1 0x0 DUP1 REVERT JUMPDEST DUP2 CALLDATALOAD DUP1 ISZERO ISZERO DUP2 EQ PUSH3 0x521 JUMPI PUSH1 0x0 DUP1 REVERT JUMPDEST PUSH1 0x20 DUP1 DUP3 MSTORE PUSH1 0x26 SWAP1 DUP3 ADD MSTORE PUSH32 0x4F6E6C7920746865206F776E65722063616E20706572666F726D207468697320 PUSH1 0x40 DUP3 ADD MSTORE PUSH6 0x30B1BA34B7B7 PUSH1 0xD1 SHL PUSH1 0x60 DUP3 ADD MSTORE PUSH1 0x80 ADD SWAP1 JUMP JUMPDEST PUSH1 0x0 JUMPDEST DUP4 DUP2 LT ISZERO PUSH3 0x748 JUMPI DUP2 DUP2 ADD MLOAD DUP4 DUP3 ADD MSTORE PUSH1 0x20 ADD PUSH3 0x72E JUMP JUMPDEST POP POP PUSH1 0x0 SWAP2 ADD MSTORE JUMP JUMPDEST PUSH7 0x2237B737B91D1 PUSH1 0xCD SHL DUP2 MSTORE PUSH12 0xFFFFFFFFFFFFFFFFFFFFFFFF NOT DUP4 PUSH1 0x60 SHL AND PUSH1 0x7 DUP3 ADD MSTORE PUSH21 0x10169024BA32B6902232B9B1B934B83A34B7B71D1 PUSH1 0x5D SHL PUSH1 0x1B DUP3 ADD MSTORE PUSH1 0x0 DUP3 MLOAD PUSH3 0x7AB DUP2 PUSH1 0x30 DUP6 ADD PUSH1 0x20 DUP8 ADD PUSH3 0x72B JUMP JUMPDEST SWAP2 SWAP1 SWAP2 ADD PUSH1 0x30 ADD SWAP4 SWAP3 POP POP POP JUMP JUMPDEST PUSH1 0x0 DUP2 MLOAD DUP1 DUP5 MSTORE PUSH3 0x7D3 DUP2 PUSH1 0x20 DUP7 ADD PUSH1 0x20 DUP7 ADD PUSH3 0x72B JUMP JUMPDEST PUSH1 0x1F ADD PUSH1 0x1F NOT AND SWAP3 SWAP1 SWAP3 ADD PUSH1 0x20 ADD SWAP3 SWAP2 POP POP JUMP JUMPDEST PUSH1 0x20 DUP2 MSTORE PUSH1 0x0 PUSH3 0x521 PUSH1 0x20 DUP4 ADD DUP5 PUSH3 0x7B9 JUMP JUMPDEST PUSH1 0x80 DUP2 MSTORE PUSH1 0x0 PUSH3 0x811 PUSH1 0x80 DUP4 ADD DUP8 PUSH3 0x7B9 JUMP JUMPDEST DUP3 DUP2 SUB PUSH1 0x20 DUP5 ADD MSTORE PUSH3 0x825 DUP2 DUP8 PUSH3 0x7B9 JUMP JUMPDEST SWAP1 POP DUP3 DUP2 SUB PUSH1 0x40 DUP5 ADD MSTORE PUSH3 0x83B DUP2 DUP7 PUSH3 0x7B9 JUMP JUMPDEST SWAP2 POP POP PUSH1 0x1 DUP1 PUSH1 0xA0 SHL SUB DUP4 AND PUSH1 0x60 DUP4 ADD MSTORE SWAP6 SWAP5 POP POP POP POP POP JUMP INVALID PUSH1 0x80 PUSH1 0x40 MSTORE CALLVALUE DUP1 ISZERO PUSH3 0x11 JUMPI PUSH1 0x0 DUP1 REVERT JUMPDEST POP PUSH1 0x40 MLOAD PUSH3 0xC0F CODESIZE SUB DUP1 PUSH3 0xC0F DUP4 CODECOPY DUP2 ADD PUSH1 0x40 DUP2 SWAP1 MSTORE PUSH3 0x34 SWAP2 PUSH3 0x15C JUMP JUMPDEST PUSH1 0x1 PUSH3 0x42 DUP6 DUP3 PUSH3 0x29E JUMP JUMPDEST POP PUSH1 0x2 PUSH3 0x51 DUP5 DUP3 PUSH3 0x29E JUMP JUMPDEST POP PUSH1 0x3 PUSH3 0x60 DUP4 DUP3 PUSH3 0x29E JUMP JUMPDEST POP PUSH1 0x0 DUP1 SLOAD PUSH1 0x1 PUSH1 0x1 PUSH1 0xA0 SHL SUB NOT AND PUSH1 0x1 PUSH1 0x1 PUSH1 0xA0 SHL SUB SWAP3 SWAP1 SWAP3 AND SWAP2 SWAP1 SWAP2 OR SWAP1 SSTORE POP POP PUSH1 0x5 DUP1 SLOAD PUSH1 0xFF NOT AND PUSH1 0x1 OR SWAP1 SSTORE POP PUSH3 0x36A JUMP JUMPDEST PUSH4 0x4E487B71 PUSH1 0xE0 SHL PUSH1 0x0 MSTORE PUSH1 0x41 PUSH1 0x4 MSTORE PUSH1 0x24 PUSH1 0x0 REVERT JUMPDEST PUSH1 0x0 DUP3 PUSH1 0x1F DUP4 ADD SLT PUSH3 0xBF JUMPI PUSH1 0x0 DUP1 REVERT JUMPDEST DUP2 MLOAD PUSH1 0x1 PUSH1 0x1 PUSH1 0x40 SHL SUB DUP1 DUP3 GT ISZERO PUSH3 0xDC JUMPI PUSH3 0xDC PUSH3 0x97 JUMP JUMPDEST PUSH1 0x40 MLOAD PUSH1 0x1F DUP4 ADD PUSH1 0x1F NOT SWAP1 DUP2 AND PUSH1 0x3F ADD AND DUP2 ADD SWAP1 DUP3 DUP3 GT DUP2 DUP4 LT OR ISZERO PUSH3 0x107 JUMPI PUSH3 0x107 PUSH3 0x97 JUMP JUMPDEST DUP2 PUSH1 0x40 MSTORE DUP4 DUP2 MSTORE PUSH1 0x20 SWAP3 POP DUP7 DUP4 DUP6 DUP9 ADD ADD GT ISZERO PUSH3 0x124 JUMPI PUSH1 0x0 DUP1 REVERT JUMPDEST PUSH1 0x0 SWAP2 POP JUMPDEST DUP4 DUP3 LT ISZERO PUSH3 0x148 JUMPI DUP6 DUP3 ADD DUP4 ADD MLOAD DUP2 DUP4 ADD DUP5 ADD MSTORE SWAP1 DUP3 ADD SWAP1 PUSH3 0x129 JUMP JUMPDEST PUSH1 0x0 SWAP4 DUP2 ADD SWAP1 SWAP3 ADD SWAP3 SWAP1 SWAP3 MSTORE SWAP5 SWAP4 POP POP POP POP JUMP JUMPDEST PUSH1 0x0 DUP1 PUSH1 0x0 DUP1 PUSH1 0x80 DUP6 DUP8 SUB SLT ISZERO PUSH3 0x173 JUMPI PUSH1 0x0 DUP1 REVERT JUMPDEST DUP5 MLOAD PUSH1 0x1 PUSH1 0x1 PUSH1 0x40 SHL SUB DUP1 DUP3 GT ISZERO PUSH3 0x18B JUMPI PUSH1 0x0 DUP1 REVERT JUMPDEST PUSH3 0x199 DUP9 DUP4 DUP10 ADD PUSH3 0xAD JUMP JUMPDEST SWAP6 POP PUSH1 0x20 DUP8 ADD MLOAD SWAP2 POP DUP1 DUP3 GT ISZERO PUSH3 0x1B0 JUMPI PUSH1 0x0 DUP1 REVERT JUMPDEST PUSH3 0x1BE DUP9 DUP4 DUP10 ADD PUSH3 0xAD JUMP JUMPDEST SWAP5 POP PUSH1 0x40 DUP8 ADD MLOAD SWAP2 POP DUP1 DUP3 GT ISZERO PUSH3 0x1D5 JUMPI PUSH1 0x0 DUP1 REVERT JUMPDEST POP PUSH3 0x1E4 DUP8 DUP3 DUP9 ADD PUSH3 0xAD JUMP JUMPDEST PUSH1 0x60 DUP8 ADD MLOAD SWAP1 SWAP4 POP SWAP1 POP PUSH1 0x1 PUSH1 0x1 PUSH1 0xA0 SHL SUB DUP2 AND DUP2 EQ PUSH3 0x204 JUMPI PUSH1 0x0 DUP1 REVERT JUMPDEST SWAP4 SWAP7 SWAP3 SWAP6 POP SWAP1 SWAP4 POP POP JUMP JUMPDEST PUSH1 0x1 DUP2 DUP2 SHR SWAP1 DUP3 AND DUP1 PUSH3 0x224 JUMPI PUSH1 0x7F DUP3 AND SWAP2 POP JUMPDEST PUSH1 0x20 DUP3 LT DUP2 SUB PUSH3 0x245 JUMPI PUSH4 0x4E487B71 PUSH1 0xE0 SHL PUSH1 0x0 MSTORE PUSH1 0x22 PUSH1 0x4 MSTORE PUSH1 0x24 PUSH1 0x0 REVERT JUMPDEST POP SWAP2 SWAP1 POP JUMP JUMPDEST PUSH1 0x1F DUP3 GT ISZERO PUSH3 0x299 JUMPI PUSH1 0x0 DUP2 DUP2 MSTORE PUSH1 0x20 DUP2 KECCAK256 PUSH1 0x1F DUP6 ADD PUSH1 0x5 SHR DUP2 ADD PUSH1 0x20 DUP7 LT ISZERO PUSH3 0x274 JUMPI POP DUP1 JUMPDEST PUSH1 0x1F DUP6 ADD PUSH1 0x5 SHR DUP3 ADD SWAP2 POP JUMPDEST DUP2 DUP2 LT ISZERO PUSH3 0x295 JUMPI DUP3 DUP2 SSTORE PUSH1 0x1 ADD PUSH3 0x280 JUMP JUMPDEST POP POP POP JUMPDEST POP POP POP JUMP JUMPDEST DUP2 MLOAD PUSH1 0x1 PUSH1 0x1 PUSH1 0x40 SHL SUB DUP2 GT ISZERO PUSH3 0x2BA JUMPI PUSH3 0x2BA PUSH3 0x97 JUMP JUMPDEST PUSH3 0x2D2 DUP2 PUSH3 0x2CB DUP5 SLOAD PUSH3 0x20F JUMP JUMPDEST DUP5 PUSH3 0x24B JUMP JUMPDEST PUSH1 0x20 DUP1 PUSH1 0x1F DUP4 GT PUSH1 0x1 DUP2 EQ PUSH3 0x30A JUMPI PUSH1 0x0 DUP5 ISZERO PUSH3 0x2F1 JUMPI POP DUP6 DUP4 ADD MLOAD JUMPDEST PUSH1 0x0 NOT PUSH1 0x3 DUP7 SWAP1 SHL SHR NOT AND PUSH1 0x1 DUP6 SWAP1 SHL OR DUP6 SSTORE PUSH3 0x295 JUMP JUMPDEST PUSH1 0x0 DUP6 DUP2 MSTORE PUSH1 0x20 DUP2 KECCAK256 PUSH1 0x1F NOT DUP7 AND SWAP2 JUMPDEST DUP3 DUP2 LT ISZERO PUSH3 0x33B JUMPI DUP9 DUP7 ADD MLOAD DUP3 SSTORE SWAP5 DUP5 ADD SWAP5 PUSH1 0x1 SWAP1 SWAP2 ADD SWAP1 DUP5 ADD PUSH3 0x31A JUMP JUMPDEST POP DUP6 DUP3 LT ISZERO PUSH3 0x35A JUMPI DUP8 DUP6 ADD MLOAD PUSH1 0x0 NOT PUSH1 0x3 DUP9 SWAP1 SHL PUSH1 0xF8 AND SHR NOT AND DUP2 SSTORE JUMPDEST POP POP POP POP POP PUSH1 0x1 SWAP1 DUP2 SHL ADD SWAP1 SSTORE POP JUMP JUMPDEST PUSH2 0x895 DUP1 PUSH3 0x37A PUSH1 0x0 CODECOPY PUSH1 0x0 RETURN INVALID PUSH1 0x80 PUSH1 0x40 MSTORE CALLVALUE DUP1 ISZERO PUSH2 0x10 JUMPI PUSH1 0x0 DUP1 REVERT JUMPDEST POP PUSH1 0x4 CALLDATASIZE LT PUSH2 0x9E JUMPI PUSH1 0x0 CALLDATALOAD PUSH1 0xE0 SHR DUP1 PUSH4 0x863559CF GT PUSH2 0x66 JUMPI DUP1 PUSH4 0x863559CF EQ PUSH2 0x126 JUMPI DUP1 PUSH4 0xCA0CDEA8 EQ PUSH2 0x12E JUMPI DUP1 PUSH4 0xD7557F18 EQ PUSH2 0x151 JUMPI DUP1 PUSH4 0xDE2ED893 EQ PUSH2 0x159 JUMPI DUP1 PUSH4 0xF8626AF8 EQ PUSH2 0x170 JUMPI PUSH1 0x0 DUP1 REVERT JUMPDEST DUP1 PUSH4 0x6FDDE03 EQ PUSH2 0xA3 JUMPI DUP1 PUSH4 0x761164E EQ PUSH2 0xC1 JUMPI DUP1 PUSH4 0x22F3E2D4 EQ PUSH2 0xD6 JUMPI DUP1 PUSH4 0x481C6A75 EQ PUSH2 0xF3 JUMPI DUP1 PUSH4 0x7284E416 EQ PUSH2 0x11E JUMPI JUMPDEST PUSH1 0x0 DUP1 REVERT JUMPDEST PUSH2 0xAB PUSH2 0x191 JUMP JUMPDEST PUSH1 0x40 MLOAD PUSH2 0xB8 SWAP2 SWAP1 PUSH2 0x5A0 JUMP JUMPDEST PUSH1 0x40 MLOAD DUP1 SWAP2 SUB SWAP1 RETURN JUMPDEST PUSH2 0xD4 PUSH2 0xCF CALLDATASIZE PUSH1 0x4 PUSH2 0x5D0 JUMP JUMPDEST PUSH2 0x21F JUMP JUMPDEST STOP JUMPDEST PUSH1 0x5 SLOAD PUSH2 0xE3 SWAP1 PUSH1 0xFF AND DUP2 JUMP JUMPDEST PUSH1 0x40 MLOAD SWAP1 ISZERO ISZERO DUP2 MSTORE PUSH1 0x20 ADD PUSH2 0xB8 JUMP JUMPDEST PUSH1 0x0 SLOAD PUSH2 0x106 SWAP1 PUSH1 0x1 PUSH1 0x1 PUSH1 0xA0 SHL SUB AND DUP2 JUMP JUMPDEST PUSH1 0x40 MLOAD PUSH1 0x1 PUSH1 0x1 PUSH1 0xA0 SHL SUB SWAP1 SWAP2 AND DUP2 MSTORE PUSH1 0x20 ADD PUSH2 0xB8 JUMP JUMPDEST PUSH2 0xAB PUSH2 0x396 JUMP JUMPDEST PUSH2 0xAB PUSH2 0x3A3 JUMP JUMPDEST PUSH2 0xE3 PUSH2 0x13C CALLDATASIZE PUSH1 0x4 PUSH2 0x681 JUMP JUMPDEST PUSH1 0x6 PUSH1 0x20 MSTORE PUSH1 0x0 SWAP1 DUP2 MSTORE PUSH1 0x40 SWAP1 KECCAK256 SLOAD PUSH1 0xFF AND DUP2 JUMP JUMPDEST PUSH2 0xD4 PUSH2 0x3B0 JUMP JUMPDEST PUSH2 0x162 PUSH1 0x4 SLOAD DUP2 JUMP JUMPDEST PUSH1 0x40 MLOAD SWAP1 DUP2 MSTORE PUSH1 0x20 ADD PUSH2 0xB8 JUMP JUMPDEST PUSH2 0x183 PUSH2 0x17E CALLDATASIZE PUSH1 0x4 PUSH2 0x6AA JUMP JUMPDEST PUSH2 0x4AB JUMP JUMPDEST PUSH1 0x40 MLOAD PUSH2 0xB8 SWAP3 SWAP2 SWAP1 PUSH2 0x6C3 JUMP JUMPDEST PUSH1 0x1 DUP1 SLOAD PUSH2 0x19E SWAP1 PUSH2 0x6EF JUMP JUMPDEST DUP1 PUSH1 0x1F ADD PUSH1 0x20 DUP1 SWAP2 DIV MUL PUSH1 0x20 ADD PUSH1 0x40 MLOAD SWAP1 DUP2 ADD PUSH1 0x40 MSTORE DUP1 SWAP3 SWAP2 SWAP1 DUP2 DUP2 MSTORE PUSH1 0x20 ADD DUP3 DUP1 SLOAD PUSH2 0x1CA SWAP1 PUSH2 0x6EF JUMP JUMPDEST DUP1 ISZERO PUSH2 0x217 JUMPI DUP1 PUSH1 0x1F LT PUSH2 0x1EC JUMPI PUSH2 0x100 DUP1 DUP4 SLOAD DIV MUL DUP4 MSTORE SWAP2 PUSH1 0x20 ADD SWAP2 PUSH2 0x217 JUMP JUMPDEST DUP3 ADD SWAP2 SWAP1 PUSH1 0x0 MSTORE PUSH1 0x20 PUSH1 0x0 KECCAK256 SWAP1 JUMPDEST DUP2 SLOAD DUP2 MSTORE SWAP1 PUSH1 0x1 ADD SWAP1 PUSH1 0x20 ADD DUP1 DUP4 GT PUSH2 0x1FA JUMPI DUP3 SWAP1 SUB PUSH1 0x1F AND DUP3 ADD SWAP2 JUMPDEST POP POP POP POP POP DUP2 JUMP JUMPDEST PUSH1 0x5 SLOAD PUSH1 0xFF AND PUSH2 0x26F JUMPI PUSH1 0x40 MLOAD PUSH3 0x461BCD PUSH1 0xE5 SHL DUP2 MSTORE PUSH1 0x20 PUSH1 0x4 DUP3 ADD MSTORE PUSH1 0x16 PUSH1 0x24 DUP3 ADD MSTORE PUSH22 0x43616D706169676E206973206E6F7420616374697665 PUSH1 0x50 SHL PUSH1 0x44 DUP3 ADD MSTORE PUSH1 0x64 ADD JUMPDEST PUSH1 0x40 MLOAD DUP1 SWAP2 SUB SWAP1 REVERT JUMPDEST PUSH1 0x0 DUP2 MLOAD GT PUSH2 0x2CA JUMPI PUSH1 0x40 MLOAD PUSH3 0x461BCD PUSH1 0xE5 SHL DUP2 MSTORE PUSH1 0x20 PUSH1 0x4 DUP3 ADD MSTORE PUSH1 0x21 PUSH1 0x24 DUP3 ADD MSTORE PUSH32 0x4974656D206465736372697074696F6E206D7573742062652070726F76696465 PUSH1 0x44 DUP3 ADD MSTORE PUSH1 0x19 PUSH1 0xFA SHL PUSH1 0x64 DUP3 ADD MSTORE PUSH1 0x84 ADD PUSH2 0x266 JUMP JUMPDEST PUSH1 0x4 SLOAD PUSH1 0x40 DUP1 MLOAD DUP1 DUP3 ADD DUP3 MSTORE CALLER DUP2 MSTORE PUSH1 0x20 DUP1 DUP3 ADD DUP6 DUP2 MSTORE PUSH1 0x0 DUP6 DUP2 MSTORE PUSH1 0x7 SWAP1 SWAP3 MSTORE SWAP3 SWAP1 KECCAK256 DUP2 MLOAD DUP2 SLOAD PUSH1 0x1 PUSH1 0x1 PUSH1 0xA0 SHL SUB NOT AND PUSH1 0x1 PUSH1 0x1 PUSH1 0xA0 SHL SUB SWAP1 SWAP2 AND OR DUP2 SSTORE SWAP2 MLOAD SWAP1 SWAP2 DUP3 SWAP2 PUSH1 0x1 DUP3 ADD SWAP1 PUSH2 0x31F SWAP1 DUP3 PUSH2 0x778 JUMP JUMPDEST POP POP CALLER PUSH1 0x0 SWAP1 DUP2 MSTORE PUSH1 0x6 PUSH1 0x20 MSTORE PUSH1 0x40 DUP2 KECCAK256 DUP1 SLOAD PUSH1 0xFF NOT AND PUSH1 0x1 OR SWAP1 SSTORE PUSH1 0x4 DUP1 SLOAD SWAP3 POP SWAP1 PUSH2 0x34B DUP4 PUSH2 0x838 JUMP JUMPDEST SWAP2 SWAP1 POP SSTORE POP CALLER PUSH1 0x1 PUSH1 0x1 PUSH1 0xA0 SHL SUB AND PUSH32 0x4E0003E8905E47174FC8F04D0E185FE54AC6DBBDA5D1C598F302FFA6A0C0E898 DUP5 PUSH1 0x40 MLOAD PUSH2 0x389 SWAP2 SWAP1 PUSH2 0x5A0 JUMP JUMPDEST PUSH1 0x40 MLOAD DUP1 SWAP2 SUB SWAP1 LOG2 POP POP POP JUMP JUMPDEST PUSH1 0x2 DUP1 SLOAD PUSH2 0x19E SWAP1 PUSH2 0x6EF JUMP JUMPDEST PUSH1 0x3 DUP1 SLOAD PUSH2 0x19E SWAP1 PUSH2 0x6EF JUMP JUMPDEST PUSH1 0x0 SLOAD PUSH1 0x1 PUSH1 0x1 PUSH1 0xA0 SHL SUB AND CALLER EQ PUSH2 0x424 JUMPI PUSH1 0x40 MLOAD PUSH3 0x461BCD PUSH1 0xE5 SHL DUP2 MSTORE PUSH1 0x20 PUSH1 0x4 DUP3 ADD MSTORE PUSH1 0x31 PUSH1 0x24 DUP3 ADD MSTORE PUSH32 0x4F6E6C79207468652063616D706169676E206D616E616765722063616E207065 PUSH1 0x44 DUP3 ADD MSTORE PUSH17 0x393337B936903A3434B99030B1BA34B7B7 PUSH1 0x79 SHL PUSH1 0x64 DUP3 ADD MSTORE PUSH1 0x84 ADD PUSH2 0x266 JUMP JUMPDEST PUSH1 0x5 SLOAD PUSH1 0xFF AND PUSH2 0x476 JUMPI PUSH1 0x40 MLOAD PUSH3 0x461BCD PUSH1 0xE5 SHL DUP2 MSTORE PUSH1 0x20 PUSH1 0x4 DUP3 ADD MSTORE PUSH1 0x1A PUSH1 0x24 DUP3 ADD MSTORE PUSH32 0x43616D706169676E20697320616C726561647920636C6F736564000000000000 PUSH1 0x44 DUP3 ADD MSTORE PUSH1 0x64 ADD PUSH2 0x266 JUMP JUMPDEST PUSH1 0x5 DUP1 SLOAD PUSH1 0xFF NOT AND SWAP1 SSTORE PUSH1 0x40 MLOAD PUSH32 0xB49A509A88F868A6F6FCE6BFA9C1E1A7FAF4E371B9EE245A8695B03AC90680C4 SWAP1 PUSH1 0x0 SWAP1 LOG1 JUMP JUMPDEST PUSH1 0x7 PUSH1 0x20 MSTORE PUSH1 0x0 SWAP1 DUP2 MSTORE PUSH1 0x40 SWAP1 KECCAK256 DUP1 SLOAD PUSH1 0x1 DUP3 ADD DUP1 SLOAD PUSH1 0x1 PUSH1 0x1 PUSH1 0xA0 SHL SUB SWAP1 SWAP3 AND SWAP3 SWAP2 PUSH2 0x4D7 SWAP1 PUSH2 0x6EF JUMP JUMPDEST DUP1 PUSH1 0x1F ADD PUSH1 0x20 DUP1 SWAP2 DIV MUL PUSH1 0x20 ADD PUSH1 0x40 MLOAD SWAP1 DUP2 ADD PUSH1 0x40 MSTORE DUP1 SWAP3 SWAP2 SWAP1 DUP2 DUP2 MSTORE PUSH1 0x20 ADD DUP3 DUP1 SLOAD PUSH2 0x503 SWAP1 PUSH2 0x6EF JUMP JUMPDEST DUP1 ISZERO PUSH2 0x550 JUMPI DUP1 PUSH1 0x1F LT PUSH2 0x525 JUMPI PUSH2 0x100 DUP1 DUP4 SLOAD DIV MUL DUP4 MSTORE SWAP2 PUSH1 0x20 ADD SWAP2 PUSH2 0x550 JUMP JUMPDEST DUP3 ADD SWAP2 SWAP1 PUSH1 0x0 MSTORE PUSH1 0x20 PUSH1 0x0 KECCAK256 SWAP1 JUMPDEST DUP2 SLOAD DUP2 MSTORE SWAP1 PUSH1 0x1 ADD SWAP1 PUSH1 0x20 ADD DUP1 DUP4 GT PUSH2 0x533 JUMPI DUP3 SWAP1 SUB PUSH1 0x1F AND DUP3 ADD SWAP2 JUMPDEST POP POP POP POP POP SWAP1 POP DUP3 JUMP JUMPDEST PUSH1 0x0 DUP2 MLOAD DUP1 DUP5 MSTORE PUSH1 0x0 JUMPDEST DUP2 DUP2 LT ISZERO PUSH2 0x580 JUMPI PUSH1 0x20 DUP2 DUP6 ADD DUP2 ADD MLOAD DUP7 DUP4 ADD DUP3 ADD MSTORE ADD PUSH2 0x564 JUMP JUMPDEST POP PUSH1 0x0 PUSH1 0x20 DUP3 DUP7 ADD ADD MSTORE PUSH1 0x20 PUSH1 0x1F NOT PUSH1 0x1F DUP4 ADD AND DUP6 ADD ADD SWAP2 POP POP SWAP3 SWAP2 POP POP JUMP JUMPDEST PUSH1 0x20 DUP2 MSTORE PUSH1 0x0 PUSH2 0x5B3 PUSH1 0x20 DUP4 ADD DUP5 PUSH2 0x55A JUMP JUMPDEST SWAP4 SWAP3 POP POP POP JUMP JUMPDEST PUSH4 0x4E487B71 PUSH1 0xE0 SHL PUSH1 0x0 MSTORE PUSH1 0x41 PUSH1 0x4 MSTORE PUSH1 0x24 PUSH1 0x0 REVERT JUMPDEST PUSH1 0x0 PUSH1 0x20 DUP3 DUP5 SUB SLT ISZERO PUSH2 0x5E2 JUMPI PUSH1 0x0 DUP1 REVERT JUMPDEST DUP2 CALLDATALOAD PUSH8 0xFFFFFFFFFFFFFFFF DUP1 DUP3 GT ISZERO PUSH2 0x5FA JUMPI PUSH1 0x0 DUP1 REVERT JUMPDEST DUP2 DUP5 ADD SWAP2 POP DUP5 PUSH1 0x1F DUP4 ADD SLT PUSH2 0x60E JUMPI PUSH1 0x0 DUP1 REVERT JUMPDEST DUP2 CALLDATALOAD DUP2 DUP2 GT ISZERO PUSH2 0x620 JUMPI PUSH2 0x620 PUSH2 0x5BA JUMP JUMPDEST PUSH1 0x40 MLOAD PUSH1 0x1F DUP3 ADD PUSH1 0x1F NOT SWAP1 DUP2 AND PUSH1 0x3F ADD AND DUP2 ADD SWAP1 DUP4 DUP3 GT DUP2 DUP4 LT OR ISZERO PUSH2 0x648 JUMPI PUSH2 0x648 PUSH2 0x5BA JUMP JUMPDEST DUP2 PUSH1 0x40 MSTORE DUP3 DUP2 MSTORE DUP8 PUSH1 0x20 DUP5 DUP8 ADD ADD GT ISZERO PUSH2 0x661 JUMPI PUSH1 0x0 DUP1 REVERT JUMPDEST DUP3 PUSH1 0x20 DUP7 ADD PUSH1 0x20 DUP4 ADD CALLDATACOPY PUSH1 0x0 SWAP3 DUP2 ADD PUSH1 0x20 ADD SWAP3 SWAP1 SWAP3 MSTORE POP SWAP6 SWAP5 POP POP POP POP POP JUMP JUMPDEST PUSH1 0x0 PUSH1 0x20 DUP3 DUP5 SUB SLT ISZERO PUSH2 0x693 JUMPI PUSH1 0x0 DUP1 REVERT JUMPDEST DUP2 CALLDATALOAD PUSH1 0x1 PUSH1 0x1 PUSH1 0xA0 SHL SUB DUP2 AND DUP2 EQ PUSH2 0x5B3 JUMPI PUSH1 0x0 DUP1 REVERT JUMPDEST PUSH1 0x0 PUSH1 0x20 DUP3 DUP5 SUB SLT ISZERO PUSH2 0x6BC JUMPI PUSH1 0x0 DUP1 REVERT JUMPDEST POP CALLDATALOAD SWAP2 SWAP1 POP JUMP JUMPDEST PUSH1 0x1 PUSH1 0x1 PUSH1 0xA0 SHL SUB DUP4 AND DUP2 MSTORE PUSH1 0x40 PUSH1 0x20 DUP3 ADD DUP2 SWAP1 MSTORE PUSH1 0x0 SWAP1 PUSH2 0x6E7 SWAP1 DUP4 ADD DUP5 PUSH2 0x55A JUMP JUMPDEST SWAP5 SWAP4 POP POP POP POP JUMP JUMPDEST PUSH1 0x1 DUP2 DUP2 SHR SWAP1 DUP3 AND DUP1 PUSH2 0x703 JUMPI PUSH1 0x7F DUP3 AND SWAP2 POP JUMPDEST PUSH1 0x20 DUP3 LT DUP2 SUB PUSH2 0x723 JUMPI PUSH4 0x4E487B71 PUSH1 0xE0 SHL PUSH1 0x0 MSTORE PUSH1 0x22 PUSH1 0x4 MSTORE PUSH1 0x24 PUSH1 0x0 REVERT JUMPDEST POP SWAP2 SWAP1 POP JUMP JUMPDEST PUSH1 0x1F DUP3 GT ISZERO PUSH2 0x773 JUMPI PUSH1 0x0 DUP2 DUP2 MSTORE PUSH1 0x20 DUP2 KECCAK256 PUSH1 0x1F DUP6 ADD PUSH1 0x5 SHR DUP2 ADD PUSH1 0x20 DUP7 LT ISZERO PUSH2 0x750 JUMPI POP DUP1 JUMPDEST PUSH1 0x1F DUP6 ADD PUSH1 0x5 SHR DUP3 ADD SWAP2 POP JUMPDEST DUP2 DUP2 LT ISZERO PUSH2 0x76F JUMPI DUP3 DUP2 SSTORE PUSH1 0x1 ADD PUSH2 0x75C JUMP JUMPDEST POP POP POP JUMPDEST POP POP POP JUMP JUMPDEST DUP2 MLOAD PUSH8 0xFFFFFFFFFFFFFFFF DUP2 GT ISZERO PUSH2 0x792 JUMPI PUSH2 0x792 PUSH2 0x5BA JUMP JUMPDEST PUSH2 0x7A6 DUP2 PUSH2 0x7A0 DUP5 SLOAD PUSH2 0x6EF JUMP JUMPDEST DUP5 PUSH2 0x729 JUMP JUMPDEST PUSH1 0x20 DUP1 PUSH1 0x1F DUP4 GT PUSH1 0x1 DUP2 EQ PUSH2 0x7DB JUMPI PUSH1 0x0 DUP5 ISZERO PUSH2 0x7C3 JUMPI POP DUP6 DUP4 ADD MLOAD JUMPDEST PUSH1 0x0 NOT PUSH1 0x3 DUP7 SWAP1 SHL SHR NOT AND PUSH1 0x1 DUP6 SWAP1 SHL OR DUP6 SSTORE PUSH2 0x76F JUMP JUMPDEST PUSH1 0x0 DUP6 DUP2 MSTORE PUSH1 0x20 DUP2 KECCAK256 PUSH1 0x1F NOT DUP7 AND SWAP2 JUMPDEST DUP3 DUP2 LT ISZERO PUSH2 0x80A JUMPI DUP9 DUP7 ADD MLOAD DUP3 SSTORE SWAP5 DUP5 ADD SWAP5 PUSH1 0x1 SWAP1 SWAP2 ADD SWAP1 DUP5 ADD PUSH2 0x7EB JUMP JUMPDEST POP DUP6 DUP3 LT ISZERO PUSH2 0x828 JUMPI DUP8 DUP6 ADD MLOAD PUSH1 0x0 NOT PUSH1 0x3 DUP9 SWAP1 SHL PUSH1 0xF8 AND SHR NOT AND DUP2 SSTORE JUMPDEST POP POP POP POP POP PUSH1 0x1 SWAP1 DUP2 SHL ADD SWAP1 SSTORE POP JUMP JUMPDEST PUSH1 0x0 PUSH1 0x1 DUP3 ADD PUSH2 0x858 JUMPI PUSH4 0x4E487B71 PUSH1 0xE0 SHL PUSH1 0x0 MSTORE PUSH1 0x11 PUSH1 0x4 MSTORE PUSH1 0x24 PUSH1 0x0 REVERT JUMPDEST POP PUSH1 0x1 ADD SWAP1 JUMP INVALID LOG2 PUSH5 0x6970667358 0x22 SLT KECCAK256 0xB5 ISZERO NUMBER LT 0xE6 LOG1 0xAA RETURNDATASIZE 0xB5 0xBC DIV 0xDB 0xE9 SWAP4 SWAP9 0xC2 0xF7 PUSH31 0x53DD3A0B0F9957D0168A0470BC7964736F6C63430008140033A26469706673 PC 0x22 SLT KECCAK256 SWAP15 0xA5 0xE7 0xB9 PUSH32 0x4E386485058DE4EBD8B4CC8A1939D8387AB8D519DACD8EC3735FED64736F6C63 NUMBER STOP ADDMOD EQ STOP CALLER "},"methodIdentifiers":{"campaigns(uint256)":"141961bc","closeCampaign(address)":"67f5f32d","createPhysicalItemCampaign(string,string,string)":"9335e5ab","isActive()":"22f3e2d4","owner()":"8da5cb5b","receivePhysicalItem(address,address,string)":"8f497a14","setActive(bool)":"acec338a"}}}}}