{
  "_format": "hh-sol-artifact-1",
  "contractName": "Campaign",
  "sourceName": "src/contracts/Campaign.sol",
  "abi": [
    {
      "inputs": [
        {
          "internalType": "string",
          "name": "_name",
          "type": "string"
        },
        {
          "internalType": "string",
          "name": "_description",
          "type": "string"
        },
        {
          "internalType": "string",
          "name": "_targetItems",
          "type": "string"
        },
        {
          "internalType": "address",
          "name": "_manager",
          "type": "address"
        }
      ],
      "stateMutability": "nonpayable",
      "type": "constructor"
    },
    {
      "anonymous": false,
      "inputs": [],
      "name": "CampaignClosed",
      "type": "event"
    },
    {
      "anonymous": false,
      "inputs": [
        {
          "indexed": true,
          "internalType": "address",
          "name": "donor",
          "type": "address"
        },
        {
          "indexed": false,
          "internalType": "string",
          "name": "itemDescription",
          "type": "string"
        }
      ],
      "name": "DonationReceived",
      "type": "event"
    },
    {
      "inputs": [],
      "name": "closeCampaign",
      "outputs": [],
      "stateMutability": "nonpayable",
      "type": "function"
    },
    {
      "inputs": [],
      "name": "description",
      "outputs": [
        {
          "internalType": "string",
          "name": "",
          "type": "string"
        }
      ],
      "stateMutability": "view",
      "type": "function"
    },
    {
      "inputs": [
        {
          "internalType": "uint256",
          "name": "",
          "type": "uint256"
        }
      ],
      "name": "donations",
      "outputs": [
        {
          "internalType": "address",
          "name": "donor",
          "type": "address"
        },
        {
          "internalType": "string",
          "name": "itemDescription",
          "type": "string"
        }
      ],
      "stateMutability": "view",
      "type": "function"
    },
    {
      "inputs": [
        {
          "internalType": "address",
          "name": "",
          "type": "address"
        }
      ],
      "name": "donors",
      "outputs": [
        {
          "internalType": "bool",
          "name": "",
          "type": "bool"
        }
      ],
      "stateMutability": "view",
      "type": "function"
    },
    {
      "inputs": [],
      "name": "isActive",
      "outputs": [
        {
          "internalType": "bool",
          "name": "",
          "type": "bool"
        }
      ],
      "stateMutability": "view",
      "type": "function"
    },
    {
      "inputs": [],
      "name": "manager",
      "outputs": [
        {
          "internalType": "address",
          "name": "",
          "type": "address"
        }
      ],
      "stateMutability": "view",
      "type": "function"
    },
    {
      "inputs": [],
      "name": "name",
      "outputs": [
        {
          "internalType": "string",
          "name": "",
          "type": "string"
        }
      ],
      "stateMutability": "view",
      "type": "function"
    },
    {
      "inputs": [
        {
          "internalType": "string",
          "name": "_itemDescription",
          "type": "string"
        }
      ],
      "name": "receivePhysicalItem",
      "outputs": [],
      "stateMutability": "nonpayable",
      "type": "function"
    },
    {
      "inputs": [],
      "name": "targetItems",
      "outputs": [
        {
          "internalType": "string",
          "name": "",
          "type": "string"
        }
      ],
      "stateMutability": "view",
      "type": "function"
    },
    {
      "inputs": [],
      "name": "totalDonations",
      "outputs": [
        {
          "internalType": "uint256",
          "name": "",
          "type": "uint256"
        }
      ],
      "stateMutability": "view",
      "type": "function"
    }
  ],
  "bytecode": "0x60806040523480156200001157600080fd5b5060405162000c0f38038062000c0f83398101604081905262000034916200015c565b60016200004285826200029e565b5060026200005184826200029e565b5060036200006083826200029e565b50600080546001600160a01b0319166001600160a01b039290921691909117905550506005805460ff19166001179055506200036a565b634e487b7160e01b600052604160045260246000fd5b600082601f830112620000bf57600080fd5b81516001600160401b0380821115620000dc57620000dc62000097565b604051601f8301601f19908116603f0116810190828211818310171562000107576200010762000097565b816040528381526020925086838588010111156200012457600080fd5b600091505b8382101562000148578582018301518183018401529082019062000129565b600093810190920192909252949350505050565b600080600080608085870312156200017357600080fd5b84516001600160401b03808211156200018b57600080fd5b6200019988838901620000ad565b95506020870151915080821115620001b057600080fd5b620001be88838901620000ad565b94506040870151915080821115620001d557600080fd5b50620001e487828801620000ad565b606087015190935090506001600160a01b03811681146200020457600080fd5b939692955090935050565b600181811c908216806200022457607f821691505b6020821081036200024557634e487b7160e01b600052602260045260246000fd5b50919050565b601f8211156200029957600081815260208120601f850160051c81016020861015620002745750805b601f850160051c820191505b81811015620002955782815560010162000280565b5050505b505050565b81516001600160401b03811115620002ba57620002ba62000097565b620002d281620002cb84546200020f565b846200024b565b602080601f8311600181146200030a5760008415620002f15750858301515b600019600386901b1c1916600185901b17855562000295565b600085815260208120601f198616915b828110156200033b578886015182559484019460019091019084016200031a565b50858210156200035a5787850151600019600388901b60f8161c191681555b5050505050600190811b01905550565b610895806200037a6000396000f3fe608060405234801561001057600080fd5b506004361061009e5760003560e01c8063863559cf11610066578063863559cf14610126578063ca0cdea81461012e578063d7557f1814610151578063de2ed89314610159578063f8626af81461017057600080fd5b806306fdde03146100a35780630761164e146100c157806322f3e2d4146100d6578063481c6a75146100f35780637284e4161461011e575b600080fd5b6100ab610191565b6040516100b891906105a0565b60405180910390f35b6100d46100cf3660046105d0565b61021f565b005b6005546100e39060ff1681565b60405190151581526020016100b8565b600054610106906001600160a01b031681565b6040516001600160a01b0390911681526020016100b8565b6100ab610396565b6100ab6103a3565b6100e361013c366004610681565b60066020526000908152604090205460ff1681565b6100d46103b0565b61016260045481565b6040519081526020016100b8565b61018361017e3660046106aa565b6104ab565b6040516100b89291906106c3565b6001805461019e906106ef565b80601f01602080910402602001604051908101604052809291908181526020018280546101ca906106ef565b80156102175780601f106101ec57610100808354040283529160200191610217565b820191906000526020600020905b8154815290600101906020018083116101fa57829003601f168201915b505050505081565b60055460ff1661026f5760405162461bcd60e51b815260206004820152601660248201527543616d706169676e206973206e6f742061637469766560501b60448201526064015b60405180910390fd5b60008151116102ca5760405162461bcd60e51b815260206004820152602160248201527f4974656d206465736372697074696f6e206d7573742062652070726f766964656044820152601960fa1b6064820152608401610266565b600454604080518082018252338152602080820185815260008581526007909252929020815181546001600160a01b0319166001600160a01b03909116178155915190918291600182019061031f9082610778565b5050336000908152600660205260408120805460ff191660011790556004805492509061034b83610838565b9190505550336001600160a01b03167f4e0003e8905e47174fc8f04d0e185fe54ac6dbbda5d1c598f302ffa6a0c0e8988460405161038991906105a0565b60405180910390a2505050565b6002805461019e906106ef565b6003805461019e906106ef565b6000546001600160a01b031633146104245760405162461bcd60e51b815260206004820152603160248201527f4f6e6c79207468652063616d706169676e206d616e616765722063616e207065604482015270393337b936903a3434b99030b1ba34b7b760791b6064820152608401610266565b60055460ff166104765760405162461bcd60e51b815260206004820152601a60248201527f43616d706169676e20697320616c726561647920636c6f7365640000000000006044820152606401610266565b6005805460ff191690556040517fb49a509a88f868a6f6fce6bfa9c1e1a7faf4e371b9ee245a8695b03ac90680c490600090a1565b600760205260009081526040902080546001820180546001600160a01b0390921692916104d7906106ef565b80601f0160208091040260200160405190810160405280929190818152602001828054610503906106ef565b80156105505780601f1061052557610100808354040283529160200191610550565b820191906000526020600020905b81548152906001019060200180831161053357829003601f168201915b5050505050905082565b6000815180845260005b8181101561058057602081850181015186830182015201610564565b506000602082860101526020601f19601f83011685010191505092915050565b6020815260006105b3602083018461055a565b9392505050565b634e487b7160e01b600052604160045260246000fd5b6000602082840312156105e257600080fd5b813567ffffffffffffffff808211156105fa57600080fd5b818401915084601f83011261060e57600080fd5b813581811115610620576106206105ba565b604051601f8201601f19908116603f01168101908382118183101715610648576106486105ba565b8160405282815287602084870101111561066157600080fd5b826020860160208301376000928101602001929092525095945050505050565b60006020828403121561069357600080fd5b81356001600160a01b03811681146105b357600080fd5b6000602082840312156106bc57600080fd5b5035919050565b6001600160a01b03831681526040602082018190526000906106e79083018461055a565b949350505050565b600181811c9082168061070357607f821691505b60208210810361072357634e487b7160e01b600052602260045260246000fd5b50919050565b601f82111561077357600081815260208120601f850160051c810160208610156107505750805b601f850160051c820191505b8181101561076f5782815560010161075c565b5050505b505050565b815167ffffffffffffffff811115610792576107926105ba565b6107a6816107a084546106ef565b84610729565b602080601f8311600181146107db57600084156107c35750858301515b600019600386901b1c1916600185901b17855561076f565b600085815260208120601f198616915b8281101561080a578886015182559484019460019091019084016107eb565b50858210156108285787850151600019600388901b60f8161c191681555b5050505050600190811b01905550565b60006001820161085857634e487b7160e01b600052601160045260246000fd5b506001019056fea2646970667358221220b5154310e6a1aa3db5bc04dbe99398c2f77e53dd3a0b0f9957d0168a0470bc7964736f6c63430008140033",
  "linkReferences": {},
  "deployedLinkReferences": {}
}