{
  "_format": "hh-sol-artifact-1",
  "contractName": "HemaHope",
  "sourceName": "contracts/HemaHope.sol",
  "abi": [
    {
      "inputs": [],
      "stateMutability": "nonpayable",
      "type": "constructor"
    },
    {
      "anonymous": false,
      "inputs": [
        {
          "indexed": true,
          "internalType": "address",
          "name": "campaignAddress",
          "type": "address"
        }
      ],
      "name": "CampaignClosed",
      "type": "event"
    },
    {
      "anonymous": false,
      "inputs": [
        {
          "indexed": true,
          "internalType": "address",
          "name": "campaignAddress",
          "type": "address"
        },
        {
          "indexed": false,
          "internalType": "string",
          "name": "name",
          "type": "string"
        }
      ],
      "name": "CampaignCreated",
      "type": "event"
    },
    {
      "anonymous": false,
      "inputs": [
        {
          "indexed": true,
          "internalType": "address",
          "name": "campaignAddress",
          "type": "address"
        },
        {
          "indexed": true,
          "internalType": "address",
          "name": "donor",
          "type": "address"
        },
        {
          "indexed": false,
          "internalType": "string",
          "name": "itemDescription",
          "type": "string"
        }
      ],
      "name": "PhysicalItemReceived",
      "type": "event"
    },
    {
      "inputs": [
        {
          "internalType": "uint256",
          "name": "",
          "type": "uint256"
        }
      ],
      "name": "campaignAddresses",
      "outputs": [
        {
          "internalType": "address",
          "name": "",
          "type": "address"
        }
      ],
      "stateMutability": "view",
      "type": "function"
    },
    {
      "inputs": [
        {
          "internalType": "address",
          "name": "",
          "type": "address"
        }
      ],
      "name": "campaigns",
      "outputs": [
        {
          "internalType": "contract Campaign",
          "name": "",
          "type": "address"
        }
      ],
      "stateMutability": "view",
      "type": "function"
    },
    {
      "inputs": [
        {
          "internalType": "address",
          "name": "campaignAddress",
          "type": "address"
        }
      ],
      "name": "closeCampaign",
      "outputs": [],
      "stateMutability": "nonpayable",
      "type": "function"
    },
    {
      "inputs": [
        {
          "internalType": "string",
          "name": "name",
          "type": "string"
        },
        {
          "internalType": "string",
          "name": "description",
          "type": "string"
        },
        {
          "internalType": "string",
          "name": "targetItems",
          "type": "string"
        },
        {
          "internalType": "uint256",
          "name": "duration",
          "type": "uint256"
        }
      ],
      "name": "createPhysicalItemCampaign",
      "outputs": [],
      "stateMutability": "nonpayable",
      "type": "function"
    },
    {
      "inputs": [
        {
          "internalType": "address",
          "name": "",
          "type": "address"
        }
      ],
      "name": "directDonations",
      "outputs": [
        {
          "internalType": "uint256",
          "name": "",
          "type": "uint256"
        }
      ],
      "stateMutability": "view",
      "type": "function"
    },
    {
      "inputs": [
        {
          "internalType": "address",
          "name": "donor",
          "type": "address"
        },
        {
          "internalType": "string",
          "name": "itemDescription",
          "type": "string"
        },
        {
          "internalType": "string",
          "name": "ipfsHash",
          "type": "string"
        }
      ],
      "name": "donateToPlatform",
      "outputs": [],
      "stateMutability": "nonpayable",
      "type": "function"
    },
    {
      "inputs": [],
      "name": "getAllCampaigns",
      "outputs": [
        {
          "internalType": "address[]",
          "name": "",
          "type": "address[]"
        }
      ],
      "stateMutability": "view",
      "type": "function"
    },
    {
      "inputs": [
        {
          "internalType": "address",
          "name": "campaignAddress",
          "type": "address"
        }
      ],
      "name": "getCampaignDetails",
      "outputs": [
        {
          "internalType": "string",
          "name": "",
          "type": "string"
        },
        {
          "internalType": "string",
          "name": "",
          "type": "string"
        },
        {
          "internalType": "string",
          "name": "",
          "type": "string"
        },
        {
          "internalType": "uint256",
          "name": "",
          "type": "uint256"
        },
        {
          "internalType": "bool",
          "name": "",
          "type": "bool"
        },
        {
          "internalType": "uint256",
          "name": "",
          "type": "uint256"
        },
        {
          "internalType": "uint256",
          "name": "",
          "type": "uint256"
        },
        {
          "internalType": "uint256",
          "name": "",
          "type": "uint256"
        },
        {
          "internalType": "uint256",
          "name": "",
          "type": "uint256"
        }
      ],
      "stateMutability": "view",
      "type": "function"
    },
    {
      "inputs": [],
      "name": "owner",
      "outputs": [
        {
          "internalType": "address",
          "name": "",
          "type": "address"
        }
      ],
      "stateMutability": "view",
      "type": "function"
    },
    {
      "inputs": [
        {
          "internalType": "address",
          "name": "campaignAddress",
          "type": "address"
        },
        {
          "internalType": "address",
          "name": "donor",
          "type": "address"
        },
        {
          "internalType": "string",
          "name": "itemDescription",
          "type": "string"
        }
      ],
      "name": "receivePhysicalItem",
      "outputs": [],
      "stateMutability": "nonpayable",
      "type": "function"
    }
  ],
  "bytecode": "0x608060405234801561001057600080fd5b50336000806101000a81548173ffffffffffffffffffffffffffffffffffffffff021916908373ffffffffffffffffffffffffffffffffffffffff160217905550613a7a806100606000396000f3fe60806040523480156200001157600080fd5b5060043610620000ac5760003560e01c80638da5cb5b116200006f5780638da5cb5b146200017f5780638f497a1414620001a15780639ca65ab814620001c1578063a931db3014620001ff578063aa173a3b146200023557620000ac565b80631601d0b514620000b15780631b422e5f14620000e757806367f5f32d146200011d5780637bb1bdf9146200013d57806386cdf604146200015d575b600080fd5b620000cf6004803603810190620000c991906200107c565b62000255565b604051620000de919062001119565b60405180910390f35b620001056004803603810190620000ff919062001171565b62000288565b604051620001149190620011b4565b60405180910390f35b6200013b60048036038101906200013591906200107c565b620002c8565b005b6200015b600480360381019062000155919062001333565b620004d8565b005b62000167620006e6565b604051620001769190620014d0565b60405180910390f35b6200018962000776565b604051620001989190620011b4565b60405180910390f35b620001bf6004803603810190620001b99190620014f4565b6200079a565b005b620001df6004803603810190620001d991906200107c565b62000975565b604051620001f69998979695949392919062001626565b60405180910390f35b6200021d60048036038101906200021791906200107c565b62000e8a565b6040516200022c9190620016da565b60405180910390f35b6200025360048036038101906200024d9190620016f7565b62000ea2565b005b60016020528060005260406000206000915054906101000a900473ffffffffffffffffffffffffffffffffffffffff1681565b600281815481106200029957600080fd5b906000526020600020016000915054906101000a900473ffffffffffffffffffffffffffffffffffffffff1681565b60008054906101000a900473ffffffffffffffffffffffffffffffffffffffff1673ffffffffffffffffffffffffffffffffffffffff163373ffffffffffffffffffffffffffffffffffffffff161462000359576040517f08c379a0000000000000000000000000000000000000000000000000000000008152600401620003509062001807565b60405180910390fd5b6000600160008373ffffffffffffffffffffffffffffffffffffffff1673ffffffffffffffffffffffffffffffffffffffff16815260200190815260200160002060009054906101000a900473ffffffffffffffffffffffffffffffffffffffff169050600073ffffffffffffffffffffffffffffffffffffffff168173ffffffffffffffffffffffffffffffffffffffff16036200042f576040517f08c379a0000000000000000000000000000000000000000000000000000000008152600401620004269062001879565b60405180910390fd5b8073ffffffffffffffffffffffffffffffffffffffff1663d7557f186040518163ffffffff1660e01b8152600401600060405180830381600087803b1580156200047857600080fd5b505af11580156200048d573d6000803e3d6000fd5b505050508173ffffffffffffffffffffffffffffffffffffffff167f2cc6b7f4a64721896dc69033b18d6cafb9edb171b7266f50cf6167dfaf2c9fe060405160405180910390a25050565b60008054906101000a900473ffffffffffffffffffffffffffffffffffffffff1673ffffffffffffffffffffffffffffffffffffffff163373ffffffffffffffffffffffffffffffffffffffff161462000569576040517f08c379a0000000000000000000000000000000000000000000000000000000008152600401620005609062001807565b60405180910390fd5b600084848433856040516200057e9062000ff5565b6200058e9594939291906200189b565b604051809103906000f080158015620005ab573d6000803e3d6000fd5b50905080600160008373ffffffffffffffffffffffffffffffffffffffff1673ffffffffffffffffffffffffffffffffffffffff16815260200190815260200160002060006101000a81548173ffffffffffffffffffffffffffffffffffffffff021916908373ffffffffffffffffffffffffffffffffffffffff1602179055506002819080600181540180825580915050600190039060005260206000200160009091909190916101000a81548173ffffffffffffffffffffffffffffffffffffffff021916908373ffffffffffffffffffffffffffffffffffffffff1602179055508073ffffffffffffffffffffffffffffffffffffffff167f17dd0b5f0975f4651b002ed3b016428bae979f5704d8b2473931b2312185c05a86604051620006d791906200190d565b60405180910390a25050505050565b606060028054806020026020016040519081016040528092919081815260200182805480156200076c57602002820191906000526020600020905b8160009054906101000a900473ffffffffffffffffffffffffffffffffffffffff1673ffffffffffffffffffffffffffffffffffffffff168152602001906001019080831162000721575b5050505050905090565b60008054906101000a900473ffffffffffffffffffffffffffffffffffffffff1681565b6000600160008573ffffffffffffffffffffffffffffffffffffffff1673ffffffffffffffffffffffffffffffffffffffff16815260200190815260200160002060009054906101000a900473ffffffffffffffffffffffffffffffffffffffff169050600073ffffffffffffffffffffffffffffffffffffffff168173ffffffffffffffffffffffffffffffffffffffff160362000870576040517f08c379a0000000000000000000000000000000000000000000000000000000008152600401620008679062001879565b60405180910390fd5b600083836040516020016200088792919062001a63565b60405160208183030381529060405290508173ffffffffffffffffffffffffffffffffffffffff16630761164e826040518263ffffffff1660e01b8152600401620008d391906200190d565b600060405180830381600087803b158015620008ee57600080fd5b505af115801562000903573d6000803e3d6000fd5b505050508373ffffffffffffffffffffffffffffffffffffffff168573ffffffffffffffffffffffffffffffffffffffff167f2bd4e7820adb831c0d45424aaee309ed6c7db3ed43aa487c518ff065a540357c856040516200096691906200190d565b60405180910390a35050505050565b60608060606000806000806000806000600160008c73ffffffffffffffffffffffffffffffffffffffff1673ffffffffffffffffffffffffffffffffffffffff16815260200190815260200160002060009054906101000a900473ffffffffffffffffffffffffffffffffffffffff169050600073ffffffffffffffffffffffffffffffffffffffff168173ffffffffffffffffffffffffffffffffffffffff160362000a59576040517f08c379a000000000000000000000000000000000000000000000000000000000815260040162000a509062001879565b60405180910390fd5b8073ffffffffffffffffffffffffffffffffffffffff1663885e7c626040518163ffffffff1660e01b8152600401600060405180830381865afa15801562000aa5573d6000803e3d6000fd5b505050506040513d6000823e3d601f19601f8201168201806040525081019062000ad0919062001b27565b8173ffffffffffffffffffffffffffffffffffffffff166374d8c6436040518163ffffffff1660e01b8152600401600060405180830381865afa15801562000b1c573d6000803e3d6000fd5b505050506040513d6000823e3d601f19601f8201168201806040525081019062000b47919062001b27565b8273ffffffffffffffffffffffffffffffffffffffff1663ff91aa1a6040518163ffffffff1660e01b8152600401600060405180830381865afa15801562000b93573d6000803e3d6000fd5b505050506040513d6000823e3d601f19601f8201168201806040525081019062000bbe919062001b27565b8373ffffffffffffffffffffffffffffffffffffffff16639433e1c56040518163ffffffff1660e01b8152600401602060405180830381865afa15801562000c0a573d6000803e3d6000fd5b505050506040513d601f19601f8201168201806040525081019062000c30919062001b8f565b8473ffffffffffffffffffffffffffffffffffffffff1663145909836040518163ffffffff1660e01b8152600401602060405180830381865afa15801562000c7c573d6000803e3d6000fd5b505050506040513d601f19601f8201168201806040525081019062000ca2919062001bf2565b8573ffffffffffffffffffffffffffffffffffffffff1663c274298f6040518163ffffffff1660e01b8152600401602060405180830381865afa15801562000cee573d6000803e3d6000fd5b505050506040513d601f19601f8201168201806040525081019062000d14919062001b8f565b8673ffffffffffffffffffffffffffffffffffffffff16636caa92186040518163ffffffff1660e01b8152600401602060405180830381865afa15801562000d60573d6000803e3d6000fd5b505050506040513d601f19601f8201168201806040525081019062000d86919062001b8f565b8773ffffffffffffffffffffffffffffffffffffffff166306e1f6306040518163ffffffff1660e01b8152600401602060405180830381865afa15801562000dd2573d6000803e3d6000fd5b505050506040513d601f19601f8201168201806040525081019062000df8919062001b8f565b8873ffffffffffffffffffffffffffffffffffffffff1663de2ed8936040518163ffffffff1660e01b8152600401602060405180830381865afa15801562000e44573d6000803e3d6000fd5b505050506040513d601f19601f8201168201806040525081019062000e6a919062001b8f565b995099509950995099509950995099509950509193959799909294969850565b60036020528060005260406000206000915090505481565b600082511162000ee9576040517f08c379a000000000000000000000000000000000000000000000000000000000815260040162000ee09062001c9a565b60405180910390fd5b600081511162000f30576040517f08c379a000000000000000000000000000000000000000000000000000000000815260040162000f279062001d0c565b60405180910390fd5b6001600360008573ffffffffffffffffffffffffffffffffffffffff1673ffffffffffffffffffffffffffffffffffffffff168152602001908152602001600020600082825462000f82919062001d5d565b925050819055508273ffffffffffffffffffffffffffffffffffffffff163073ffffffffffffffffffffffffffffffffffffffff167f2bd4e7820adb831c0d45424aaee309ed6c7db3ed43aa487c518ff065a540357c8460405162000fe891906200190d565b60405180910390a3505050565b611cac8062001d9983390190565b6000604051905090565b600080fd5b600080fd5b600073ffffffffffffffffffffffffffffffffffffffff82169050919050565b6000620010448262001017565b9050919050565b620010568162001037565b81146200106257600080fd5b50565b60008135905062001076816200104b565b92915050565b6000602082840312156200109557620010946200100d565b5b6000620010a58482850162001065565b91505092915050565b6000819050919050565b6000620010d9620010d3620010cd8462001017565b620010ae565b62001017565b9050919050565b6000620010ed82620010b8565b9050919050565b60006200110182620010e0565b9050919050565b6200111381620010f4565b82525050565b600060208201905062001130600083018462001108565b92915050565b6000819050919050565b6200114b8162001136565b81146200115757600080fd5b50565b6000813590506200116b8162001140565b92915050565b6000602082840312156200118a57620011896200100d565b5b60006200119a848285016200115a565b91505092915050565b620011ae8162001037565b82525050565b6000602082019050620011cb6000830184620011a3565b92915050565b600080fd5b600080fd5b6000601f19601f8301169050919050565b7f4e487b7100000000000000000000000000000000000000000000000000000000600052604160045260246000fd5b6200122682620011db565b810181811067ffffffffffffffff82111715620012485762001247620011ec565b5b80604052505050565b60006200125d62001003565b90506200126b82826200121b565b919050565b600067ffffffffffffffff8211156200128e576200128d620011ec565b5b6200129982620011db565b9050602081019050919050565b82818337600083830152505050565b6000620012cc620012c68462001270565b62001251565b905082815260208101848484011115620012eb57620012ea620011d6565b5b620012f8848285620012a6565b509392505050565b600082601f830112620013185762001317620011d1565b5b81356200132a848260208601620012b5565b91505092915050565b6000806000806080858703121562001350576200134f6200100d565b5b600085013567ffffffffffffffff81111562001371576200137062001012565b5b6200137f8782880162001300565b945050602085013567ffffffffffffffff811115620013a357620013a262001012565b5b620013b18782880162001300565b935050604085013567ffffffffffffffff811115620013d557620013d462001012565b5b620013e38782880162001300565b9250506060620013f6878288016200115a565b91505092959194509250565b600081519050919050565b600082825260208201905092915050565b6000819050602082019050919050565b620014398162001037565b82525050565b60006200144d83836200142e565b60208301905092915050565b6000602082019050919050565b6000620014738262001402565b6200147f81856200140d565b93506200148c836200141e565b8060005b83811015620014c3578151620014a788826200143f565b9750620014b48362001459565b92505060018101905062001490565b5085935050505092915050565b60006020820190508181036000830152620014ec818462001466565b905092915050565b60008060006060848603121562001510576200150f6200100d565b5b6000620015208682870162001065565b9350506020620015338682870162001065565b925050604084013567ffffffffffffffff81111562001557576200155662001012565b5b620015658682870162001300565b9150509250925092565b600081519050919050565b600082825260208201905092915050565b60005b83811015620015ab5780820151818401526020810190506200158e565b60008484015250505050565b6000620015c4826200156f565b620015d081856200157a565b9350620015e28185602086016200158b565b620015ed81620011db565b840191505092915050565b620016038162001136565b82525050565b60008115159050919050565b620016208162001609565b82525050565b600061012082019050818103600083015262001643818c620015b7565b9050818103602083015262001659818b620015b7565b905081810360408301526200166f818a620015b7565b9050620016806060830189620015f8565b6200168f608083018862001615565b6200169e60a0830187620015f8565b620016ad60c0830186620015f8565b620016bc60e0830185620015f8565b620016cc610100830184620015f8565b9a9950505050505050505050565b6000602082019050620016f16000830184620015f8565b92915050565b6000806000606084860312156200171357620017126200100d565b5b6000620017238682870162001065565b935050602084013567ffffffffffffffff81111562001747576200174662001012565b5b620017558682870162001300565b925050604084013567ffffffffffffffff81111562001779576200177862001012565b5b620017878682870162001300565b9150509250925092565b7f4f6e6c7920746865206f776e65722063616e20706572666f726d20746869732060008201527f616374696f6e0000000000000000000000000000000000000000000000000000602082015250565b6000620017ef6026836200157a565b9150620017fc8262001791565b604082019050919050565b600060208201905081810360008301526200182281620017e0565b9050919050565b7f43616d706169676e206e6f7420666f756e640000000000000000000000000000600082015250565b6000620018616012836200157a565b91506200186e8262001829565b602082019050919050565b60006020820190508181036000830152620018948162001852565b9050919050565b600060a0820190508181036000830152620018b78188620015b7565b90508181036020830152620018cd8187620015b7565b90508181036040830152620018e38186620015b7565b9050620018f46060830185620011a3565b620019036080830184620015f8565b9695505050505050565b60006020820190508181036000830152620019298184620015b7565b905092915050565b600081905092915050565b7f446f6e6f723a2000000000000000000000000000000000000000000000000000600082015250565b60006200197460078362001931565b915062001981826200193c565b600782019050919050565b60008160601b9050919050565b6000620019a6826200198c565b9050919050565b6000620019ba8262001999565b9050919050565b620019d6620019d08262001037565b620019ad565b82525050565b7f202d204974656d204465736372697074696f6e3a200000000000000000000000600082015250565b600062001a1460158362001931565b915062001a2182620019dc565b601582019050919050565b600062001a39826200156f565b62001a45818562001931565b935062001a578185602086016200158b565b80840191505092915050565b600062001a708262001965565b915062001a7e8285620019c1565b60148201915062001a8f8262001a05565b915062001a9d828462001a2c565b91508190509392505050565b600062001ac062001aba8462001270565b62001251565b90508281526020810184848401111562001adf5762001ade620011d6565b5b62001aec8482856200158b565b509392505050565b600082601f83011262001b0c5762001b0b620011d1565b5b815162001b1e84826020860162001aa9565b91505092915050565b60006020828403121562001b405762001b3f6200100d565b5b600082015167ffffffffffffffff81111562001b615762001b6062001012565b5b62001b6f8482850162001af4565b91505092915050565b60008151905062001b898162001140565b92915050565b60006020828403121562001ba85762001ba76200100d565b5b600062001bb88482850162001b78565b91505092915050565b62001bcc8162001609565b811462001bd857600080fd5b50565b60008151905062001bec8162001bc1565b92915050565b60006020828403121562001c0b5762001c0a6200100d565b5b600062001c1b8482850162001bdb565b91505092915050565b7f4974656d206465736372697074696f6e206d7573742062652070726f7669646560008201527f6400000000000000000000000000000000000000000000000000000000000000602082015250565b600062001c826021836200157a565b915062001c8f8262001c24565b604082019050919050565b6000602082019050818103600083015262001cb58162001c73565b9050919050565b7f495046532068617368206d7573742062652070726f7669646564000000000000600082015250565b600062001cf4601a836200157a565b915062001d018262001cbc565b602082019050919050565b6000602082019050818103600083015262001d278162001ce5565b9050919050565b7f4e487b7100000000000000000000000000000000000000000000000000000000600052601160045260246000fd5b600062001d6a8262001136565b915062001d778362001136565b925082820190508082111562001d925762001d9162001d2e565b5b9291505056fe60806040523480156200001157600080fd5b5060405162001cac38038062001cac833981810160405281019062000037919062000314565b84600190816200004891906200063a565b5083600290816200005a91906200063a565b5082600390816200006c91906200063a565b50816000806101000a81548173ffffffffffffffffffffffffffffffffffffffff021916908373ffffffffffffffffffffffffffffffffffffffff1602179055506001600560006101000a81548160ff0219169083151502179055504260068190555080600781905550505050505062000721565b6000604051905090565b600080fd5b600080fd5b600080fd5b600080fd5b6000601f19601f8301169050919050565b7f4e487b7100000000000000000000000000000000000000000000000000000000600052604160045260246000fd5b6200014a82620000ff565b810181811067ffffffffffffffff821117156200016c576200016b62000110565b5b80604052505050565b600062000181620000e1565b90506200018f82826200013f565b919050565b600067ffffffffffffffff821115620001b257620001b162000110565b5b620001bd82620000ff565b9050602081019050919050565b60005b83811015620001ea578082015181840152602081019050620001cd565b60008484015250505050565b60006200020d620002078462000194565b62000175565b9050828152602081018484840111156200022c576200022b620000fa565b5b62000239848285620001ca565b509392505050565b600082601f830112620002595762000258620000f5565b5b81516200026b848260208601620001f6565b91505092915050565b600073ffffffffffffffffffffffffffffffffffffffff82169050919050565b6000620002a18262000274565b9050919050565b620002b38162000294565b8114620002bf57600080fd5b50565b600081519050620002d381620002a8565b92915050565b6000819050919050565b620002ee81620002d9565b8114620002fa57600080fd5b50565b6000815190506200030e81620002e3565b92915050565b600080600080600060a08688031215620003335762000332620000eb565b5b600086015167ffffffffffffffff811115620003545762000353620000f0565b5b620003628882890162000241565b955050602086015167ffffffffffffffff811115620003865762000385620000f0565b5b620003948882890162000241565b945050604086015167ffffffffffffffff811115620003b857620003b7620000f0565b5b620003c68882890162000241565b9350506060620003d988828901620002c2565b9250506080620003ec88828901620002fd565b9150509295509295909350565b600081519050919050565b7f4e487b7100000000000000000000000000000000000000000000000000000000600052602260045260246000fd5b600060028204905060018216806200044c57607f821691505b60208210810362000462576200046162000404565b5b50919050565b60008190508160005260206000209050919050565b60006020601f8301049050919050565b600082821b905092915050565b600060088302620004cc7fffffffffffffffffffffffffffffffffffffffffffffffffffffffffffffffff826200048d565b620004d886836200048d565b95508019841693508086168417925050509392505050565b6000819050919050565b60006200051b620005156200050f84620002d9565b620004f0565b620002d9565b9050919050565b6000819050919050565b6200053783620004fa565b6200054f620005468262000522565b8484546200049a565b825550505050565b600090565b6200056662000557565b620005738184846200052c565b505050565b5b818110156200059b576200058f6000826200055c565b60018101905062000579565b5050565b601f821115620005ea57620005b48162000468565b620005bf846200047d565b81016020851015620005cf578190505b620005e7620005de856200047d565b83018262000578565b50505b505050565b600082821c905092915050565b60006200060f60001984600802620005ef565b1980831691505092915050565b60006200062a8383620005fc565b9150826002028217905092915050565b6200064582620003f9565b67ffffffffffffffff81111562000661576200066062000110565b5b6200066d825462000433565b6200067a8282856200059f565b600060209050601f831160018114620006b257600084156200069d578287015190505b620006a985826200061c565b86555062000719565b601f198416620006c28662000468565b60005b82811015620006ec57848901518255600182019150602085019450602081019050620006c5565b868310156200070c578489015162000708601f891682620005fc565b8355505b6001600288020188555050505b505050505050565b61157b80620007316000396000f3fe608060405234801561001057600080fd5b50600436106101425760003560e01c806374d8c643116100b8578063c274298f1161007c578063c274298f14610325578063ca0cdea814610343578063d7557f1814610373578063de2ed8931461037d578063f8626af81461039b578063ff91aa1a146103cc57610142565b806374d8c6431461028f578063863559cf146102ad578063885e7c62146102cb5780639433e1c5146102e9578063b33110861461030757610142565b8063481c6a751161010a578063481c6a75146101db57806354b6ba95146101f95780635f8c5e5f146102175780636caa9218146102355780637274e30d146102535780637284e4161461027157610142565b806306e1f6301461014757806306fdde03146101655780630761164e14610183578063145909831461019f57806322f3e2d4146101bd575b600080fd5b61014f6103ea565b60405161015c9190610c21565b60405180910390f35b61016d6103f4565b60405161017a9190610ccc565b60405180910390f35b61019d60048036038101906101989190610e37565b610482565b005b6101a761069a565b6040516101b49190610e9b565b60405180910390f35b6101c56106b1565b6040516101d29190610e9b565b60405180910390f35b6101e36106c4565b6040516101f09190610ef7565b60405180910390f35b6102016106e8565b60405161020e9190610c21565b60405180910390f35b61021f6106ee565b60405161022c9190610c21565b60405180910390f35b61023d6106f4565b60405161024a9190610c21565b60405180910390f35b61025b6106fe565b6040516102689190610c21565b60405180910390f35b610279610704565b6040516102869190610ccc565b60405180910390f35b610297610792565b6040516102a49190610ccc565b60405180910390f35b6102b5610824565b6040516102c29190610ccc565b60405180910390f35b6102d36108b2565b6040516102e09190610ccc565b60405180910390f35b6102f1610944565b6040516102fe9190610c21565b60405180910390f35b61030f61094e565b60405161031c9190610c21565b60405180910390f35b61032d610954565b60405161033a9190610c21565b60405180910390f35b61035d60048036038101906103589190610f3e565b61095e565b60405161036a9190610e9b565b60405180910390f35b61037b61097e565b005b610385610aa4565b6040516103929190610c21565b60405180910390f35b6103b560048036038101906103b09190610f97565b610aaa565b6040516103c3929190610fc4565b60405180910390f35b6103d4610b76565b6040516103e19190610ccc565b60405180910390f35b6000600954905090565b6001805461040190611023565b80601f016020809104026020016040519081016040528092919081815260200182805461042d90611023565b801561047a5780601f1061044f5761010080835404028352916020019161047a565b820191906000526020600020905b81548152906001019060200180831161045d57829003601f168201915b505050505081565b600560009054906101000a900460ff166104d1576040517f08c379a00000000000000000000000000000000000000000000000000000000081526004016104c8906110a0565b60405180910390fd5b6000815111610515576040517f08c379a000000000000000000000000000000000000000000000000000000000815260040161050c90611132565b60405180910390fd5b60006004549050600060405180604001604052803373ffffffffffffffffffffffffffffffffffffffff16815260200184815250905080600b600084815260200190815260200160002060008201518160000160006101000a81548173ffffffffffffffffffffffffffffffffffffffff021916908373ffffffffffffffffffffffffffffffffffffffff16021790555060208201518160010190816105bb91906112fe565b509050506001600a60003373ffffffffffffffffffffffffffffffffffffffff1673ffffffffffffffffffffffffffffffffffffffff16815260200190815260200160002060006101000a81548160ff0219169083151502179055506004600081548092919061062a906113ff565b919050555060096000815480929190610642906113ff565b91905055503373ffffffffffffffffffffffffffffffffffffffff167f4e0003e8905e47174fc8f04d0e185fe54ac6dbbda5d1c598f302ffa6a0c0e8988460405161068d9190610ccc565b60405180910390a2505050565b6000600560009054906101000a900460ff16905090565b600560009054906101000a900460ff1681565b60008054906101000a900473ffffffffffffffffffffffffffffffffffffffff1681565b60075481565b60095481565b6000600854905090565b60085481565b6002805461071190611023565b80601f016020809104026020016040519081016040528092919081815260200182805461073d90611023565b801561078a5780601f1061075f5761010080835404028352916020019161078a565b820191906000526020600020905b81548152906001019060200180831161076d57829003601f168201915b505050505081565b6060600280546107a190611023565b80601f01602080910402602001604051908101604052809291908181526020018280546107cd90611023565b801561081a5780601f106107ef5761010080835404028352916020019161081a565b820191906000526020600020905b8154815290600101906020018083116107fd57829003601f168201915b5050505050905090565b6003805461083190611023565b80601f016020809104026020016040519081016040528092919081815260200182805461085d90611023565b80156108aa5780601f1061087f576101008083540402835291602001916108aa565b820191906000526020600020905b81548152906001019060200180831161088d57829003601f168201915b505050505081565b6060600180546108c190611023565b80601f01602080910402602001604051908101604052809291908181526020018280546108ed90611023565b801561093a5780601f1061090f5761010080835404028352916020019161093a565b820191906000526020600020905b81548152906001019060200180831161091d57829003601f168201915b5050505050905090565b6000600754905090565b60065481565b6000600654905090565b600a6020528060005260406000206000915054906101000a900460ff1681565b60008054906101000a900473ffffffffffffffffffffffffffffffffffffffff1673ffffffffffffffffffffffffffffffffffffffff163373ffffffffffffffffffffffffffffffffffffffff1614610a0c576040517f08c379a0000000000000000000000000000000000000000000000000000000008152600401610a03906114b9565b60405180910390fd5b600560009054906101000a900460ff16610a5b576040517f08c379a0000000000000000000000000000000000000000000000000000000008152600401610a5290611525565b60405180910390fd5b6000600560006101000a81548160ff0219169083151502179055507fb49a509a88f868a6f6fce6bfa9c1e1a7faf4e371b9ee245a8695b03ac90680c460405160405180910390a1565b60045481565b600b6020528060005260406000206000915090508060000160009054906101000a900473ffffffffffffffffffffffffffffffffffffffff1690806001018054610af390611023565b80601f0160208091040260200160405190810160405280929190818152602001828054610b1f90611023565b8015610b6c5780601f10610b4157610100808354040283529160200191610b6c565b820191906000526020600020905b815481529060010190602001808311610b4f57829003601f168201915b5050505050905082565b606060038054610b8590611023565b80601f0160208091040260200160405190810160405280929190818152602001828054610bb190611023565b8015610bfe5780601f10610bd357610100808354040283529160200191610bfe565b820191906000526020600020905b815481529060010190602001808311610be157829003601f168201915b5050505050905090565b6000819050919050565b610c1b81610c08565b82525050565b6000602082019050610c366000830184610c12565b92915050565b600081519050919050565b600082825260208201905092915050565b60005b83811015610c76578082015181840152602081019050610c5b565b60008484015250505050565b6000601f19601f8301169050919050565b6000610c9e82610c3c565b610ca88185610c47565b9350610cb8818560208601610c58565b610cc181610c82565b840191505092915050565b60006020820190508181036000830152610ce68184610c93565b905092915050565b6000604051905090565b600080fd5b600080fd5b600080fd5b600080fd5b7f4e487b7100000000000000000000000000000000000000000000000000000000600052604160045260246000fd5b610d4482610c82565b810181811067ffffffffffffffff82111715610d6357610d62610d0c565b5b80604052505050565b6000610d76610cee565b9050610d828282610d3b565b919050565b600067ffffffffffffffff821115610da257610da1610d0c565b5b610dab82610c82565b9050602081019050919050565b82818337600083830152505050565b6000610dda610dd584610d87565b610d6c565b905082815260208101848484011115610df657610df5610d07565b5b610e01848285610db8565b509392505050565b600082601f830112610e1e57610e1d610d02565b5b8135610e2e848260208601610dc7565b91505092915050565b600060208284031215610e4d57610e4c610cf8565b5b600082013567ffffffffffffffff811115610e6b57610e6a610cfd565b5b610e7784828501610e09565b91505092915050565b60008115159050919050565b610e9581610e80565b82525050565b6000602082019050610eb06000830184610e8c565b92915050565b600073ffffffffffffffffffffffffffffffffffffffff82169050919050565b6000610ee182610eb6565b9050919050565b610ef181610ed6565b82525050565b6000602082019050610f0c6000830184610ee8565b92915050565b610f1b81610ed6565b8114610f2657600080fd5b50565b600081359050610f3881610f12565b92915050565b600060208284031215610f5457610f53610cf8565b5b6000610f6284828501610f29565b91505092915050565b610f7481610c08565b8114610f7f57600080fd5b50565b600081359050610f9181610f6b565b92915050565b600060208284031215610fad57610fac610cf8565b5b6000610fbb84828501610f82565b91505092915050565b6000604082019050610fd96000830185610ee8565b8181036020830152610feb8184610c93565b90509392505050565b7f4e487b7100000000000000000000000000000000000000000000000000000000600052602260045260246000fd5b6000600282049050600182168061103b57607f821691505b60208210810361104e5761104d610ff4565b5b50919050565b7f43616d706169676e206973206e6f742061637469766500000000000000000000600082015250565b600061108a601683610c47565b915061109582611054565b602082019050919050565b600060208201905081810360008301526110b98161107d565b9050919050565b7f4974656d206465736372697074696f6e206d7573742062652070726f7669646560008201527f6400000000000000000000000000000000000000000000000000000000000000602082015250565b600061111c602183610c47565b9150611127826110c0565b604082019050919050565b6000602082019050818103600083015261114b8161110f565b9050919050565b60008190508160005260206000209050919050565b60006020601f8301049050919050565b600082821b905092915050565b6000600883026111b47fffffffffffffffffffffffffffffffffffffffffffffffffffffffffffffffff82611177565b6111be8683611177565b95508019841693508086168417925050509392505050565b6000819050919050565b60006111fb6111f66111f184610c08565b6111d6565b610c08565b9050919050565b6000819050919050565b611215836111e0565b61122961122182611202565b848454611184565b825550505050565b600090565b61123e611231565b61124981848461120c565b505050565b5b8181101561126d57611262600082611236565b60018101905061124f565b5050565b601f8211156112b25761128381611152565b61128c84611167565b8101602085101561129b578190505b6112af6112a785611167565b83018261124e565b50505b505050565b600082821c905092915050565b60006112d5600019846008026112b7565b1980831691505092915050565b60006112ee83836112c4565b9150826002028217905092915050565b61130782610c3c565b67ffffffffffffffff8111156113205761131f610d0c565b5b61132a8254611023565b611335828285611271565b600060209050601f8311600181146113685760008415611356578287015190505b61136085826112e2565b8655506113c8565b601f19841661137686611152565b60005b8281101561139e57848901518255600182019150602085019450602081019050611379565b868310156113bb57848901516113b7601f8916826112c4565b8355505b6001600288020188555050505b505050505050565b7f4e487b7100000000000000000000000000000000000000000000000000000000600052601160045260246000fd5b600061140a82610c08565b91507fffffffffffffffffffffffffffffffffffffffffffffffffffffffffffffffff820361143c5761143b6113d0565b5b600182019050919050565b7f4f6e6c79207468652063616d706169676e206d616e616765722063616e20706560008201527f72666f726d207468697320616374696f6e000000000000000000000000000000602082015250565b60006114a3603183610c47565b91506114ae82611447565b604082019050919050565b600060208201905081810360008301526114d281611496565b9050919050565b7f43616d706169676e20697320616c726561647920636c6f736564000000000000600082015250565b600061150f601a83610c47565b915061151a826114d9565b602082019050919050565b6000602082019050818103600083015261153e81611502565b905091905056fea2646970667358221220a38975d0a783f83e83ecb20a1539eb9b1d4ce476f3640e0b99101f4c6bfcfee964736f6c63430008140033a2646970667358221220251fcc411051cb61127f2b3df327b0c6f2c27621c618d57828cbbe7343d5dcfb64736f6c63430008140033",
  "linkReferences": {},
  "deployedLinkReferences": {}
}