{
  "_format": "hh-sol-artifact-1",
  "contractName": "Donation",
  "sourceName": "contracts/Donation.sol",
  "abi": [
    {
      "inputs": [
        {
          "internalType": "address",
          "name": "_charityPlatformAddress",
          "type": "address"
        }
      ],
      "stateMutability": "nonpayable",
      "type": "constructor"
    },
    {
      "anonymous": false,
      "inputs": [
        {
          "indexed": true,
          "internalType": "address",
          "name": "campaignAddress",
          "type": "address"
        },
        {
          "indexed": true,
          "internalType": "address",
          "name": "donor",
          "type": "address"
        },
        {
          "indexed": false,
          "internalType": "string",
          "name": "itemDescription",
          "type": "string"
        },
        {
          "indexed": false,
          "internalType": "uint256",
          "name": "quantity",
          "type": "uint256"
        },
        {
          "indexed": false,
          "internalType": "string",
          "name": "ipfsHash",
          "type": "string"
        }
      ],
      "name": "DonationMade",
      "type": "event"
    },
    {
      "inputs": [],
      "name": "charityPlatform",
      "outputs": [
        {
          "internalType": "contract HemaHope",
          "name": "",
          "type": "address"
        }
      ],
      "stateMutability": "view",
      "type": "function"
    },
    {
      "inputs": [
        {
          "internalType": "address",
          "name": "campaignAddress",
          "type": "address"
        },
        {
          "internalType": "address",
          "name": "donor",
          "type": "address"
        },
        {
          "internalType": "string",
          "name": "itemDescription",
          "type": "string"
        },
        {
          "internalType": "uint256",
          "name": "quantity",
          "type": "uint256"
        },
        {
          "internalType": "string",
          "name": "ipfsHash",
          "type": "string"
        }
      ],
      "name": "donatePhysicalItem",
      "outputs": [],
      "stateMutability": "nonpayable",
      "type": "function"
    },
    {
      "inputs": [
        {
          "internalType": "address",
          "name": "campaignAddress",
          "type": "address"
        },
        {
          "internalType": "address",
          "name": "donor",
          "type": "address"
        },
        {
          "internalType": "string",
          "name": "itemDescription",
          "type": "string"
        },
        {
          "internalType": "uint256",
          "name": "quantity",
          "type": "uint256"
        },
        {
          "internalType": "string",
          "name": "ipfsHash",
          "type": "string"
        }
      ],
      "name": "donatePhysicalItems",
      "outputs": [],
      "stateMutability": "nonpayable",
      "type": "function"
    },
    {
      "inputs": [],
      "name": "owner",
      "outputs": [
        {
          "internalType": "address",
          "name": "",
          "type": "address"
        }
      ],
      "stateMutability": "view",
      "type": "function"
    },
    {
      "inputs": [
        {
          "internalType": "address",
          "name": "_charityPlatformAddress",
          "type": "address"
        }
      ],
      "name": "updateCharityPlatform",
      "outputs": [],
      "stateMutability": "nonpayable",
      "type": "function"
    }
  ],
  "bytecode": "0x60806040523480156200001157600080fd5b506040516200138138038062001381833981810160405281019062000037919062000129565b806000806101000a81548173ffffffffffffffffffffffffffffffffffffffff021916908373ffffffffffffffffffffffffffffffffffffffff16021790555033600160006101000a81548173ffffffffffffffffffffffffffffffffffffffff021916908373ffffffffffffffffffffffffffffffffffffffff160217905550506200015b565b600080fd5b600073ffffffffffffffffffffffffffffffffffffffff82169050919050565b6000620000f182620000c4565b9050919050565b6200010381620000e4565b81146200010f57600080fd5b50565b6000815190506200012381620000f8565b92915050565b600060208284031215620001425762000141620000bf565b5b6000620001528482850162000112565b91505092915050565b611216806200016b6000396000f3fe608060405234801561001057600080fd5b50600436106100575760003560e01c80632b4be9da1461005c57806343e7019a1461007a5780638da5cb5b146100965780638fb83b99146100b457806396c8d08f146100d0575b600080fd5b6100646100ec565b60405161007191906109e0565b60405180910390f35b610094600480360381019061008f9190610bc9565b610110565b005b61009e6104a2565b6040516100ab9190610c8b565b60405180910390f35b6100ce60048036038101906100c99190610ca6565b6104c8565b005b6100ea60048036038101906100e59190610bc9565b61060a565b005b60008054906101000a900473ffffffffffffffffffffffffffffffffffffffff1681565b600160009054906101000a900473ffffffffffffffffffffffffffffffffffffffff1673ffffffffffffffffffffffffffffffffffffffff163373ffffffffffffffffffffffffffffffffffffffff16146101a0576040517f08c379a000000000000000000000000000000000000000000000000000000000815260040161019790610d56565b60405180910390fd5b600073ffffffffffffffffffffffffffffffffffffffff168473ffffffffffffffffffffffffffffffffffffffff160361020f576040517f08c379a000000000000000000000000000000000000000000000000000000000815260040161020690610dc2565b60405180910390fd5b6000835111610253576040517f08c379a000000000000000000000000000000000000000000000000000000000815260040161024a90610e54565b60405180910390fd5b60008211610296576040517f08c379a000000000000000000000000000000000000000000000000000000000815260040161028d90610ec0565b60405180910390fd5b60008151116102da576040517f08c379a00000000000000000000000000000000000000000000000000000000081526004016102d190610f2c565b60405180910390fd5b600073ffffffffffffffffffffffffffffffffffffffff168573ffffffffffffffffffffffffffffffffffffffff16146103a25760008054906101000a900473ffffffffffffffffffffffffffffffffffffffff1673ffffffffffffffffffffffffffffffffffffffff16638f497a148686866040518463ffffffff1660e01b815260040161036b93929190610fba565b600060405180830381600087803b15801561038557600080fd5b505af1158015610399573d6000803e3d6000fd5b50505050610432565b60008054906101000a900473ffffffffffffffffffffffffffffffffffffffff1673ffffffffffffffffffffffffffffffffffffffff1663aa173a3b8585846040518463ffffffff1660e01b81526004016103ff93929190610ff8565b600060405180830381600087803b15801561041957600080fd5b505af115801561042d573d6000803e3d6000fd5b505050505b8373ffffffffffffffffffffffffffffffffffffffff168573ffffffffffffffffffffffffffffffffffffffff167fe12cd3888ff544cb80d9a0bba2486e583d569292e3e0b35b1913b772a3ab85888585856040516104939392919061104c565b60405180910390a35050505050565b600160009054906101000a900473ffffffffffffffffffffffffffffffffffffffff1681565b600160009054906101000a900473ffffffffffffffffffffffffffffffffffffffff1673ffffffffffffffffffffffffffffffffffffffff163373ffffffffffffffffffffffffffffffffffffffff1614610558576040517f08c379a000000000000000000000000000000000000000000000000000000000815260040161054f90610d56565b60405180910390fd5b600073ffffffffffffffffffffffffffffffffffffffff168173ffffffffffffffffffffffffffffffffffffffff16036105c7576040517f08c379a00000000000000000000000000000000000000000000000000000000081526004016105be906110dd565b60405180910390fd5b806000806101000a81548173ffffffffffffffffffffffffffffffffffffffff021916908373ffffffffffffffffffffffffffffffffffffffff16021790555050565b600160009054906101000a900473ffffffffffffffffffffffffffffffffffffffff1673ffffffffffffffffffffffffffffffffffffffff163373ffffffffffffffffffffffffffffffffffffffff161461069a576040517f08c379a000000000000000000000000000000000000000000000000000000000815260040161069190610d56565b60405180910390fd5b600073ffffffffffffffffffffffffffffffffffffffff168573ffffffffffffffffffffffffffffffffffffffff1603610709576040517f08c379a000000000000000000000000000000000000000000000000000000000815260040161070090611149565b60405180910390fd5b600073ffffffffffffffffffffffffffffffffffffffff168473ffffffffffffffffffffffffffffffffffffffff1603610778576040517f08c379a000000000000000000000000000000000000000000000000000000000815260040161076f90610dc2565b60405180910390fd5b60008351116107bc576040517f08c379a00000000000000000000000000000000000000000000000000000000081526004016107b390610e54565b60405180910390fd5b600082116107ff576040517f08c379a00000000000000000000000000000000000000000000000000000000081526004016107f690610ec0565b60405180910390fd5b6000815111610843576040517f08c379a000000000000000000000000000000000000000000000000000000000815260040161083a90610f2c565b60405180910390fd5b60005b828110156108f05760008054906101000a900473ffffffffffffffffffffffffffffffffffffffff1673ffffffffffffffffffffffffffffffffffffffff16638f497a148787876040518463ffffffff1660e01b81526004016108ab93929190610fba565b600060405180830381600087803b1580156108c557600080fd5b505af11580156108d9573d6000803e3d6000fd5b5050505080806108e890611198565b915050610846565b508373ffffffffffffffffffffffffffffffffffffffff168573ffffffffffffffffffffffffffffffffffffffff167fe12cd3888ff544cb80d9a0bba2486e583d569292e3e0b35b1913b772a3ab85888585856040516109529392919061104c565b60405180910390a35050505050565b600073ffffffffffffffffffffffffffffffffffffffff82169050919050565b6000819050919050565b60006109a66109a161099c84610961565b610981565b610961565b9050919050565b60006109b88261098b565b9050919050565b60006109ca826109ad565b9050919050565b6109da816109bf565b82525050565b60006020820190506109f560008301846109d1565b92915050565b6000604051905090565b600080fd5b600080fd5b6000610a1a82610961565b9050919050565b610a2a81610a0f565b8114610a3557600080fd5b50565b600081359050610a4781610a21565b92915050565b600080fd5b600080fd5b6000601f19601f8301169050919050565b7f4e487b7100000000000000000000000000000000000000000000000000000000600052604160045260246000fd5b610aa082610a57565b810181811067ffffffffffffffff82111715610abf57610abe610a68565b5b80604052505050565b6000610ad26109fb565b9050610ade8282610a97565b919050565b600067ffffffffffffffff821115610afe57610afd610a68565b5b610b0782610a57565b9050602081019050919050565b82818337600083830152505050565b6000610b36610b3184610ae3565b610ac8565b905082815260208101848484011115610b5257610b51610a52565b5b610b5d848285610b14565b509392505050565b600082601f830112610b7a57610b79610a4d565b5b8135610b8a848260208601610b23565b91505092915050565b6000819050919050565b610ba681610b93565b8114610bb157600080fd5b50565b600081359050610bc381610b9d565b92915050565b600080600080600060a08688031215610be557610be4610a05565b5b6000610bf388828901610a38565b9550506020610c0488828901610a38565b945050604086013567ffffffffffffffff811115610c2557610c24610a0a565b5b610c3188828901610b65565b9350506060610c4288828901610bb4565b925050608086013567ffffffffffffffff811115610c6357610c62610a0a565b5b610c6f88828901610b65565b9150509295509295909350565b610c8581610a0f565b82525050565b6000602082019050610ca06000830184610c7c565b92915050565b600060208284031215610cbc57610cbb610a05565b5b6000610cca84828501610a38565b91505092915050565b600082825260208201905092915050565b7f4f6e6c792074686520636f6e7472616374206f776e65722063616e207065726660008201527f6f726d207468697320616374696f6e0000000000000000000000000000000000602082015250565b6000610d40602f83610cd3565b9150610d4b82610ce4565b604082019050919050565b60006020820190508181036000830152610d6f81610d33565b9050919050565b7f496e76616c696420646f6e6f7220616464726573730000000000000000000000600082015250565b6000610dac601583610cd3565b9150610db782610d76565b602082019050919050565b60006020820190508181036000830152610ddb81610d9f565b9050919050565b7f4974656d206465736372697074696f6e206d7573742062652070726f7669646560008201527f6400000000000000000000000000000000000000000000000000000000000000602082015250565b6000610e3e602183610cd3565b9150610e4982610de2565b604082019050919050565b60006020820190508181036000830152610e6d81610e31565b9050919050565b7f5175616e74697479206d7573742062652067726561746572207468616e203000600082015250565b6000610eaa601f83610cd3565b9150610eb582610e74565b602082019050919050565b60006020820190508181036000830152610ed981610e9d565b9050919050565b7f495046532068617368206d7573742062652070726f7669646564000000000000600082015250565b6000610f16601a83610cd3565b9150610f2182610ee0565b602082019050919050565b60006020820190508181036000830152610f4581610f09565b9050919050565b600081519050919050565b60005b83811015610f75578082015181840152602081019050610f5a565b60008484015250505050565b6000610f8c82610f4c565b610f968185610cd3565b9350610fa6818560208601610f57565b610faf81610a57565b840191505092915050565b6000606082019050610fcf6000830186610c7c565b610fdc6020830185610c7c565b8181036040830152610fee8184610f81565b9050949350505050565b600060608201905061100d6000830186610c7c565b818103602083015261101f8185610f81565b905081810360408301526110338184610f81565b9050949350505050565b61104681610b93565b82525050565b600060608201905081810360008301526110668186610f81565b9050611075602083018561103d565b81810360408301526110878184610f81565b9050949350505050565b7f496e76616c69642043686172697479506c6174666f726d206164647265737300600082015250565b60006110c7601f83610cd3565b91506110d282611091565b602082019050919050565b600060208201905081810360008301526110f6816110ba565b9050919050565b7f496e76616c69642063616d706169676e20616464726573730000000000000000600082015250565b6000611133601883610cd3565b915061113e826110fd565b602082019050919050565b6000602082019050818103600083015261116281611126565b9050919050565b7f4e487b7100000000000000000000000000000000000000000000000000000000600052601160045260246000fd5b60006111a382610b93565b91507fffffffffffffffffffffffffffffffffffffffffffffffffffffffffffffffff82036111d5576111d4611169565b5b60018201905091905056fea264697066735822122091f34cf0643c8e05b50ed681b7fedcec4a45432baaf232e87c3eebdf4c1644f764736f6c63430008140033",
  "linkReferences": {},
  "deployedLinkReferences": {}
}