{
  "_format": "hh-sol-artifact-1",
  "contractName": "Campaign",
  "sourceName": "contracts/Campaign.sol",
  "abi": [
    {
      "inputs": [
        {
          "internalType": "string",
          "name": "_name",
          "type": "string"
        },
        {
          "internalType": "string",
          "name": "_description",
          "type": "string"
        },
        {
          "internalType": "string",
          "name": "_targetItems",
          "type": "string"
        },
        {
          "internalType": "address",
          "name": "_manager",
          "type": "address"
        },
        {
          "internalType": "uint256",
          "name": "_durationInDays",
          "type": "uint256"
        }
      ],
      "stateMutability": "nonpayable",
      "type": "constructor"
    },
    {
      "anonymous": false,
      "inputs": [],
      "name": "CampaignClosed",
      "type": "event"
    },
    {
      "anonymous": false,
      "inputs": [
        {
          "indexed": false,
          "internalType": "string",
          "name": "name",
          "type": "string"
        },
        {
          "indexed": false,
          "internalType": "string",
          "name": "description",
          "type": "string"
        },
        {
          "indexed": false,
          "internalType": "string",
          "name": "targetItems",
          "type": "string"
        },
        {
          "indexed": false,
          "internalType": "uint256",
          "name": "durationInDays",
          "type": "uint256"
        }
      ],
      "name": "CampaignDetailsUpdated",
      "type": "event"
    },
    {
      "anonymous": false,
      "inputs": [
        {
          "indexed": true,
          "internalType": "address",
          "name": "donor",
          "type": "address"
        },
        {
          "indexed": false,
          "internalType": "string",
          "name": "itemDescription",
          "type": "string"
        }
      ],
      "name": "DonationReceived",
      "type": "event"
    },
    {
      "inputs": [],
      "name": "campaignCount",
      "outputs": [
        {
          "internalType": "uint256",
          "name": "",
          "type": "uint256"
        }
      ],
      "stateMutability": "view",
      "type": "function"
    },
    {
      "inputs": [],
      "name": "checkIsActive",
      "outputs": [
        {
          "internalType": "bool",
          "name": "",
          "type": "bool"
        }
      ],
      "stateMutability": "view",
      "type": "function"
    },
    {
      "inputs": [],
      "name": "closeCampaign",
      "outputs": [],
      "stateMutability": "nonpayable",
      "type": "function"
    },
    {
      "inputs": [],
      "name": "creationTimestamp",
      "outputs": [
        {
          "internalType": "uint256",
          "name": "",
          "type": "uint256"
        }
      ],
      "stateMutability": "view",
      "type": "function"
    },
    {
      "inputs": [],
      "name": "description",
      "outputs": [
        {
          "internalType": "string",
          "name": "",
          "type": "string"
        }
      ],
      "stateMutability": "view",
      "type": "function"
    },
    {
      "inputs": [
        {
          "internalType": "uint256",
          "name": "",
          "type": "uint256"
        }
      ],
      "name": "donations",
      "outputs": [
        {
          "internalType": "address",
          "name": "donor",
          "type": "address"
        },
        {
          "internalType": "string",
          "name": "itemDescription",
          "type": "string"
        }
      ],
      "stateMutability": "view",
      "type": "function"
    },
    {
      "inputs": [
        {
          "internalType": "address",
          "name": "",
          "type": "address"
        }
      ],
      "name": "donors",
      "outputs": [
        {
          "internalType": "bool",
          "name": "",
          "type": "bool"
        }
      ],
      "stateMutability": "view",
      "type": "function"
    },
    {
      "inputs": [],
      "name": "durationInDays",
      "outputs": [
        {
          "internalType": "uint256",
          "name": "",
          "type": "uint256"
        }
      ],
      "stateMutability": "view",
      "type": "function"
    },
    {
      "inputs": [],
      "name": "getCampaignCount",
      "outputs": [
        {
          "internalType": "uint256",
          "name": "",
          "type": "uint256"
        }
      ],
      "stateMutability": "view",
      "type": "function"
    },
    {
      "inputs": [],
      "name": "getCampaignDescription",
      "outputs": [
        {
          "internalType": "string",
          "name": "",
          "type": "string"
        }
      ],
      "stateMutability": "view",
      "type": "function"
    },
    {
      "inputs": [],
      "name": "getCampaignName",
      "outputs": [
        {
          "internalType": "string",
          "name": "",
          "type": "string"
        }
      ],
      "stateMutability": "view",
      "type": "function"
    },
    {
      "inputs": [],
      "name": "getCreationTimestamp",
      "outputs": [
        {
          "internalType": "uint256",
          "name": "",
          "type": "uint256"
        }
      ],
      "stateMutability": "view",
      "type": "function"
    },
    {
      "inputs": [],
      "name": "getDurationInDays",
      "outputs": [
        {
          "internalType": "uint256",
          "name": "",
          "type": "uint256"
        }
      ],
      "stateMutability": "view",
      "type": "function"
    },
    {
      "inputs": [],
      "name": "getTargetItems",
      "outputs": [
        {
          "internalType": "string",
          "name": "",
          "type": "string"
        }
      ],
      "stateMutability": "view",
      "type": "function"
    },
    {
      "inputs": [],
      "name": "getTotalItemsDonated",
      "outputs": [
        {
          "internalType": "uint256",
          "name": "",
          "type": "uint256"
        }
      ],
      "stateMutability": "view",
      "type": "function"
    },
    {
      "inputs": [],
      "name": "isActive",
      "outputs": [
        {
          "internalType": "bool",
          "name": "",
          "type": "bool"
        }
      ],
      "stateMutability": "view",
      "type": "function"
    },
    {
      "inputs": [],
      "name": "manager",
      "outputs": [
        {
          "internalType": "address",
          "name": "",
          "type": "address"
        }
      ],
      "stateMutability": "view",
      "type": "function"
    },
    {
      "inputs": [],
      "name": "name",
      "outputs": [
        {
          "internalType": "string",
          "name": "",
          "type": "string"
        }
      ],
      "stateMutability": "view",
      "type": "function"
    },
    {
      "inputs": [
        {
          "internalType": "string",
          "name": "_itemDescription",
          "type": "string"
        }
      ],
      "name": "receivePhysicalItem",
      "outputs": [],
      "stateMutability": "nonpayable",
      "type": "function"
    },
    {
      "inputs": [],
      "name": "targetItems",
      "outputs": [
        {
          "internalType": "string",
          "name": "",
          "type": "string"
        }
      ],
      "stateMutability": "view",
      "type": "function"
    },
    {
      "inputs": [],
      "name": "totalDonations",
      "outputs": [
        {
          "internalType": "uint256",
          "name": "",
          "type": "uint256"
        }
      ],
      "stateMutability": "view",
      "type": "function"
    },
    {
      "inputs": [],
      "name": "totalItemsDonated",
      "outputs": [
        {
          "internalType": "uint256",
          "name": "",
          "type": "uint256"
        }
      ],
      "stateMutability": "view",
      "type": "function"
    }
  ],
  "bytecode": "0x60806040523480156200001157600080fd5b5060405162001cac38038062001cac833981810160405281019062000037919062000314565b84600190816200004891906200063a565b5083600290816200005a91906200063a565b5082600390816200006c91906200063a565b50816000806101000a81548173ffffffffffffffffffffffffffffffffffffffff021916908373ffffffffffffffffffffffffffffffffffffffff1602179055506001600560006101000a81548160ff0219169083151502179055504260068190555080600781905550505050505062000721565b6000604051905090565b600080fd5b600080fd5b600080fd5b600080fd5b6000601f19601f8301169050919050565b7f4e487b7100000000000000000000000000000000000000000000000000000000600052604160045260246000fd5b6200014a82620000ff565b810181811067ffffffffffffffff821117156200016c576200016b62000110565b5b80604052505050565b600062000181620000e1565b90506200018f82826200013f565b919050565b600067ffffffffffffffff821115620001b257620001b162000110565b5b620001bd82620000ff565b9050602081019050919050565b60005b83811015620001ea578082015181840152602081019050620001cd565b60008484015250505050565b60006200020d620002078462000194565b62000175565b9050828152602081018484840111156200022c576200022b620000fa565b5b62000239848285620001ca565b509392505050565b600082601f830112620002595762000258620000f5565b5b81516200026b848260208601620001f6565b91505092915050565b600073ffffffffffffffffffffffffffffffffffffffff82169050919050565b6000620002a18262000274565b9050919050565b620002b38162000294565b8114620002bf57600080fd5b50565b600081519050620002d381620002a8565b92915050565b6000819050919050565b620002ee81620002d9565b8114620002fa57600080fd5b50565b6000815190506200030e81620002e3565b92915050565b600080600080600060a08688031215620003335762000332620000eb565b5b600086015167ffffffffffffffff811115620003545762000353620000f0565b5b620003628882890162000241565b955050602086015167ffffffffffffffff811115620003865762000385620000f0565b5b620003948882890162000241565b945050604086015167ffffffffffffffff811115620003b857620003b7620000f0565b5b620003c68882890162000241565b9350506060620003d988828901620002c2565b9250506080620003ec88828901620002fd565b9150509295509295909350565b600081519050919050565b7f4e487b7100000000000000000000000000000000000000000000000000000000600052602260045260246000fd5b600060028204905060018216806200044c57607f821691505b60208210810362000462576200046162000404565b5b50919050565b60008190508160005260206000209050919050565b60006020601f8301049050919050565b600082821b905092915050565b600060088302620004cc7fffffffffffffffffffffffffffffffffffffffffffffffffffffffffffffffff826200048d565b620004d886836200048d565b95508019841693508086168417925050509392505050565b6000819050919050565b60006200051b620005156200050f84620002d9565b620004f0565b620002d9565b9050919050565b6000819050919050565b6200053783620004fa565b6200054f620005468262000522565b8484546200049a565b825550505050565b600090565b6200056662000557565b620005738184846200052c565b505050565b5b818110156200059b576200058f6000826200055c565b60018101905062000579565b5050565b601f821115620005ea57620005b48162000468565b620005bf846200047d565b81016020851015620005cf578190505b620005e7620005de856200047d565b83018262000578565b50505b505050565b600082821c905092915050565b60006200060f60001984600802620005ef565b1980831691505092915050565b60006200062a8383620005fc565b9150826002028217905092915050565b6200064582620003f9565b67ffffffffffffffff81111562000661576200066062000110565b5b6200066d825462000433565b6200067a8282856200059f565b600060209050601f831160018114620006b257600084156200069d578287015190505b620006a985826200061c565b86555062000719565b601f198416620006c28662000468565b60005b82811015620006ec57848901518255600182019150602085019450602081019050620006c5565b868310156200070c578489015162000708601f891682620005fc565b8355505b6001600288020188555050505b505050505050565b61157b80620007316000396000f3fe608060405234801561001057600080fd5b50600436106101425760003560e01c806374d8c643116100b8578063c274298f1161007c578063c274298f14610325578063ca0cdea814610343578063d7557f1814610373578063de2ed8931461037d578063f8626af81461039b578063ff91aa1a146103cc57610142565b806374d8c6431461028f578063863559cf146102ad578063885e7c62146102cb5780639433e1c5146102e9578063b33110861461030757610142565b8063481c6a751161010a578063481c6a75146101db57806354b6ba95146101f95780635f8c5e5f146102175780636caa9218146102355780637274e30d146102535780637284e4161461027157610142565b806306e1f6301461014757806306fdde03146101655780630761164e14610183578063145909831461019f57806322f3e2d4146101bd575b600080fd5b61014f6103ea565b60405161015c9190610c21565b60405180910390f35b61016d6103f4565b60405161017a9190610ccc565b60405180910390f35b61019d60048036038101906101989190610e37565b610482565b005b6101a761069a565b6040516101b49190610e9b565b60405180910390f35b6101c56106b1565b6040516101d29190610e9b565b60405180910390f35b6101e36106c4565b6040516101f09190610ef7565b60405180910390f35b6102016106e8565b60405161020e9190610c21565b60405180910390f35b61021f6106ee565b60405161022c9190610c21565b60405180910390f35b61023d6106f4565b60405161024a9190610c21565b60405180910390f35b61025b6106fe565b6040516102689190610c21565b60405180910390f35b610279610704565b6040516102869190610ccc565b60405180910390f35b610297610792565b6040516102a49190610ccc565b60405180910390f35b6102b5610824565b6040516102c29190610ccc565b60405180910390f35b6102d36108b2565b6040516102e09190610ccc565b60405180910390f35b6102f1610944565b6040516102fe9190610c21565b60405180910390f35b61030f61094e565b60405161031c9190610c21565b60405180910390f35b61032d610954565b60405161033a9190610c21565b60405180910390f35b61035d60048036038101906103589190610f3e565b61095e565b60405161036a9190610e9b565b60405180910390f35b61037b61097e565b005b610385610aa4565b6040516103929190610c21565b60405180910390f35b6103b560048036038101906103b09190610f97565b610aaa565b6040516103c3929190610fc4565b60405180910390f35b6103d4610b76565b6040516103e19190610ccc565b60405180910390f35b6000600954905090565b6001805461040190611023565b80601f016020809104026020016040519081016040528092919081815260200182805461042d90611023565b801561047a5780601f1061044f5761010080835404028352916020019161047a565b820191906000526020600020905b81548152906001019060200180831161045d57829003601f168201915b505050505081565b600560009054906101000a900460ff166104d1576040517f08c379a00000000000000000000000000000000000000000000000000000000081526004016104c8906110a0565b60405180910390fd5b6000815111610515576040517f08c379a000000000000000000000000000000000000000000000000000000000815260040161050c90611132565b60405180910390fd5b60006004549050600060405180604001604052803373ffffffffffffffffffffffffffffffffffffffff16815260200184815250905080600b600084815260200190815260200160002060008201518160000160006101000a81548173ffffffffffffffffffffffffffffffffffffffff021916908373ffffffffffffffffffffffffffffffffffffffff16021790555060208201518160010190816105bb91906112fe565b509050506001600a60003373ffffffffffffffffffffffffffffffffffffffff1673ffffffffffffffffffffffffffffffffffffffff16815260200190815260200160002060006101000a81548160ff0219169083151502179055506004600081548092919061062a906113ff565b919050555060096000815480929190610642906113ff565b91905055503373ffffffffffffffffffffffffffffffffffffffff167f4e0003e8905e47174fc8f04d0e185fe54ac6dbbda5d1c598f302ffa6a0c0e8988460405161068d9190610ccc565b60405180910390a2505050565b6000600560009054906101000a900460ff16905090565b600560009054906101000a900460ff1681565b60008054906101000a900473ffffffffffffffffffffffffffffffffffffffff1681565b60075481565b60095481565b6000600854905090565b60085481565b6002805461071190611023565b80601f016020809104026020016040519081016040528092919081815260200182805461073d90611023565b801561078a5780601f1061075f5761010080835404028352916020019161078a565b820191906000526020600020905b81548152906001019060200180831161076d57829003601f168201915b505050505081565b6060600280546107a190611023565b80601f01602080910402602001604051908101604052809291908181526020018280546107cd90611023565b801561081a5780601f106107ef5761010080835404028352916020019161081a565b820191906000526020600020905b8154815290600101906020018083116107fd57829003601f168201915b5050505050905090565b6003805461083190611023565b80601f016020809104026020016040519081016040528092919081815260200182805461085d90611023565b80156108aa5780601f1061087f576101008083540402835291602001916108aa565b820191906000526020600020905b81548152906001019060200180831161088d57829003601f168201915b505050505081565b6060600180546108c190611023565b80601f01602080910402602001604051908101604052809291908181526020018280546108ed90611023565b801561093a5780601f1061090f5761010080835404028352916020019161093a565b820191906000526020600020905b81548152906001019060200180831161091d57829003601f168201915b5050505050905090565b6000600754905090565b60065481565b6000600654905090565b600a6020528060005260406000206000915054906101000a900460ff1681565b60008054906101000a900473ffffffffffffffffffffffffffffffffffffffff1673ffffffffffffffffffffffffffffffffffffffff163373ffffffffffffffffffffffffffffffffffffffff1614610a0c576040517f08c379a0000000000000000000000000000000000000000000000000000000008152600401610a03906114b9565b60405180910390fd5b600560009054906101000a900460ff16610a5b576040517f08c379a0000000000000000000000000000000000000000000000000000000008152600401610a5290611525565b60405180910390fd5b6000600560006101000a81548160ff0219169083151502179055507fb49a509a88f868a6f6fce6bfa9c1e1a7faf4e371b9ee245a8695b03ac90680c460405160405180910390a1565b60045481565b600b6020528060005260406000206000915090508060000160009054906101000a900473ffffffffffffffffffffffffffffffffffffffff1690806001018054610af390611023565b80601f0160208091040260200160405190810160405280929190818152602001828054610b1f90611023565b8015610b6c5780601f10610b4157610100808354040283529160200191610b6c565b820191906000526020600020905b815481529060010190602001808311610b4f57829003601f168201915b5050505050905082565b606060038054610b8590611023565b80601f0160208091040260200160405190810160405280929190818152602001828054610bb190611023565b8015610bfe5780601f10610bd357610100808354040283529160200191610bfe565b820191906000526020600020905b815481529060010190602001808311610be157829003601f168201915b5050505050905090565b6000819050919050565b610c1b81610c08565b82525050565b6000602082019050610c366000830184610c12565b92915050565b600081519050919050565b600082825260208201905092915050565b60005b83811015610c76578082015181840152602081019050610c5b565b60008484015250505050565b6000601f19601f8301169050919050565b6000610c9e82610c3c565b610ca88185610c47565b9350610cb8818560208601610c58565b610cc181610c82565b840191505092915050565b60006020820190508181036000830152610ce68184610c93565b905092915050565b6000604051905090565b600080fd5b600080fd5b600080fd5b600080fd5b7f4e487b7100000000000000000000000000000000000000000000000000000000600052604160045260246000fd5b610d4482610c82565b810181811067ffffffffffffffff82111715610d6357610d62610d0c565b5b80604052505050565b6000610d76610cee565b9050610d828282610d3b565b919050565b600067ffffffffffffffff821115610da257610da1610d0c565b5b610dab82610c82565b9050602081019050919050565b82818337600083830152505050565b6000610dda610dd584610d87565b610d6c565b905082815260208101848484011115610df657610df5610d07565b5b610e01848285610db8565b509392505050565b600082601f830112610e1e57610e1d610d02565b5b8135610e2e848260208601610dc7565b91505092915050565b600060208284031215610e4d57610e4c610cf8565b5b600082013567ffffffffffffffff811115610e6b57610e6a610cfd565b5b610e7784828501610e09565b91505092915050565b60008115159050919050565b610e9581610e80565b82525050565b6000602082019050610eb06000830184610e8c565b92915050565b600073ffffffffffffffffffffffffffffffffffffffff82169050919050565b6000610ee182610eb6565b9050919050565b610ef181610ed6565b82525050565b6000602082019050610f0c6000830184610ee8565b92915050565b610f1b81610ed6565b8114610f2657600080fd5b50565b600081359050610f3881610f12565b92915050565b600060208284031215610f5457610f53610cf8565b5b6000610f6284828501610f29565b91505092915050565b610f7481610c08565b8114610f7f57600080fd5b50565b600081359050610f9181610f6b565b92915050565b600060208284031215610fad57610fac610cf8565b5b6000610fbb84828501610f82565b91505092915050565b6000604082019050610fd96000830185610ee8565b8181036020830152610feb8184610c93565b90509392505050565b7f4e487b7100000000000000000000000000000000000000000000000000000000600052602260045260246000fd5b6000600282049050600182168061103b57607f821691505b60208210810361104e5761104d610ff4565b5b50919050565b7f43616d706169676e206973206e6f742061637469766500000000000000000000600082015250565b600061108a601683610c47565b915061109582611054565b602082019050919050565b600060208201905081810360008301526110b98161107d565b9050919050565b7f4974656d206465736372697074696f6e206d7573742062652070726f7669646560008201527f6400000000000000000000000000000000000000000000000000000000000000602082015250565b600061111c602183610c47565b9150611127826110c0565b604082019050919050565b6000602082019050818103600083015261114b8161110f565b9050919050565b60008190508160005260206000209050919050565b60006020601f8301049050919050565b600082821b905092915050565b6000600883026111b47fffffffffffffffffffffffffffffffffffffffffffffffffffffffffffffffff82611177565b6111be8683611177565b95508019841693508086168417925050509392505050565b6000819050919050565b60006111fb6111f66111f184610c08565b6111d6565b610c08565b9050919050565b6000819050919050565b611215836111e0565b61122961122182611202565b848454611184565b825550505050565b600090565b61123e611231565b61124981848461120c565b505050565b5b8181101561126d57611262600082611236565b60018101905061124f565b5050565b601f8211156112b25761128381611152565b61128c84611167565b8101602085101561129b578190505b6112af6112a785611167565b83018261124e565b50505b505050565b600082821c905092915050565b60006112d5600019846008026112b7565b1980831691505092915050565b60006112ee83836112c4565b9150826002028217905092915050565b61130782610c3c565b67ffffffffffffffff8111156113205761131f610d0c565b5b61132a8254611023565b611335828285611271565b600060209050601f8311600181146113685760008415611356578287015190505b61136085826112e2565b8655506113c8565b601f19841661137686611152565b60005b8281101561139e57848901518255600182019150602085019450602081019050611379565b868310156113bb57848901516113b7601f8916826112c4565b8355505b6001600288020188555050505b505050505050565b7f4e487b7100000000000000000000000000000000000000000000000000000000600052601160045260246000fd5b600061140a82610c08565b91507fffffffffffffffffffffffffffffffffffffffffffffffffffffffffffffffff820361143c5761143b6113d0565b5b600182019050919050565b7f4f6e6c79207468652063616d706169676e206d616e616765722063616e20706560008201527f72666f726d207468697320616374696f6e000000000000000000000000000000602082015250565b60006114a3603183610c47565b91506114ae82611447565b604082019050919050565b600060208201905081810360008301526114d281611496565b9050919050565b7f43616d706169676e20697320616c726561647920636c6f736564000000000000600082015250565b600061150f601a83610c47565b915061151a826114d9565b602082019050919050565b6000602082019050818103600083015261153e81611502565b905091905056fea2646970667358221220a38975d0a783f83e83ecb20a1539eb9b1d4ce476f3640e0b99101f4c6bfcfee964736f6c63430008140033",
  "linkReferences": {},
  "deployedLinkReferences": {}
}