{
  "_format": "hh-sol-artifact-1",
  "contractName": "HemaHope",
  "sourceName": "contracts/HemaHope.sol",
  "abi": [
    {
      "inputs": [],
      "stateMutability": "nonpayable",
      "type": "constructor"
    },
    {
      "anonymous": false,
      "inputs": [
        {
          "indexed": true,
          "internalType": "address",
          "name": "campaignAddress",
          "type": "address"
        }
      ],
      "name": "CampaignClosed",
      "type": "event"
    },
    {
      "anonymous": false,
      "inputs": [
        {
          "indexed": true,
          "internalType": "address",
          "name": "campaignAddress",
          "type": "address"
        },
        {
          "indexed": false,
          "internalType": "string",
          "name": "name",
          "type": "string"
        }
      ],
      "name": "CampaignCreated",
      "type": "event"
    },
    {
      "anonymous": false,
      "inputs": [
        {
          "indexed": true,
          "internalType": "address",
          "name": "campaignAddress",
          "type": "address"
        },
        {
          "indexed": true,
          "internalType": "address",
          "name": "donor",
          "type": "address"
        },
        {
          "indexed": false,
          "internalType": "string",
          "name": "itemDescription",
          "type": "string"
        }
      ],
      "name": "PhysicalItemReceived",
      "type": "event"
    },
    {
      "inputs": [
        {
          "internalType": "uint256",
          "name": "",
          "type": "uint256"
        }
      ],
      "name": "campaigns",
      "outputs": [
        {
          "internalType": "contract Campaign",
          "name": "",
          "type": "address"
        }
      ],
      "stateMutability": "view",
      "type": "function"
    },
    {
      "inputs": [
        {
          "internalType": "address",
          "name": "campaignAddress",
          "type": "address"
        }
      ],
      "name": "closeCampaign",
      "outputs": [],
      "stateMutability": "nonpayable",
      "type": "function"
    },
    {
      "inputs": [
        {
          "internalType": "string",
          "name": "name",
          "type": "string"
        },
        {
          "internalType": "string",
          "name": "description",
          "type": "string"
        },
        {
          "internalType": "string",
          "name": "targetItems",
          "type": "string"
        }
      ],
      "name": "createPhysicalItemCampaign",
      "outputs": [],
      "stateMutability": "nonpayable",
      "type": "function"
    },
    {
      "inputs": [],
      "name": "isActive",
      "outputs": [
        {
          "internalType": "bool",
          "name": "",
          "type": "bool"
        }
      ],
      "stateMutability": "view",
      "type": "function"
    },
    {
      "inputs": [],
      "name": "owner",
      "outputs": [
        {
          "internalType": "address",
          "name": "",
          "type": "address"
        }
      ],
      "stateMutability": "view",
      "type": "function"
    },
    {
      "inputs": [
        {
          "internalType": "address",
          "name": "campaignAddress",
          "type": "address"
        },
        {
          "internalType": "address",
          "name": "donor",
          "type": "address"
        },
        {
          "internalType": "string",
          "name": "itemDescription",
          "type": "string"
        }
      ],
      "name": "receivePhysicalItem",
      "outputs": [],
      "stateMutability": "nonpayable",
      "type": "function"
    },
    {
      "inputs": [
        {
          "internalType": "bool",
          "name": "active",
          "type": "bool"
        }
      ],
      "name": "setActive",
      "outputs": [],
      "stateMutability": "nonpayable",
      "type": "function"
    }
  ],
  "bytecode": "0x608060405234801561001057600080fd5b50336000806101000a81548173ffffffffffffffffffffffffffffffffffffffff021916908373ffffffffffffffffffffffffffffffffffffffff16021790555061270b806100606000396000f3fe60806040523480156200001157600080fd5b5060043610620000885760003560e01c80638da5cb5b11620000635780638da5cb5b14620001055780638f497a1414620001275780639335e5ab1462000147578063acec338a14620001675762000088565b8063141961bc146200008d57806322f3e2d414620000c357806367f5f32d14620000e5575b600080fd5b620000ab6004803603810190620000a59190620006df565b62000187565b604051620000ba91906200079c565b60405180910390f35b620000cd620001c7565b604051620000dc9190620007d6565b60405180910390f35b620001036004803603810190620000fd919062000838565b620001da565b005b6200010f62000319565b6040516200011e91906200087b565b60405180910390f35b6200014560048036038101906200013f9190620009fa565b6200033d565b005b6200016560048036038101906200015f919062000a75565b62000447565b005b6200018560048036038101906200017f919062000b5f565b620005d4565b005b600181815481106200019857600080fd5b906000526020600020016000915054906101000a900473ffffffffffffffffffffffffffffffffffffffff1681565b600260009054906101000a900460ff1681565b60008054906101000a900473ffffffffffffffffffffffffffffffffffffffff1673ffffffffffffffffffffffffffffffffffffffff163373ffffffffffffffffffffffffffffffffffffffff16146200026b576040517f08c379a0000000000000000000000000000000000000000000000000000000008152600401620002629062000c18565b60405180910390fd5b60008190508073ffffffffffffffffffffffffffffffffffffffff1663d7557f186040518163ffffffff1660e01b8152600401600060405180830381600087803b158015620002b957600080fd5b505af1158015620002ce573d6000803e3d6000fd5b505050508173ffffffffffffffffffffffffffffffffffffffff167f2cc6b7f4a64721896dc69033b18d6cafb9edb171b7266f50cf6167dfaf2c9fe060405160405180910390a25050565b60008054906101000a900473ffffffffffffffffffffffffffffffffffffffff1681565b6000839050600083836040516020016200035992919062000da3565b60405160208183030381529060405290508173ffffffffffffffffffffffffffffffffffffffff16630761164e826040518263ffffffff1660e01b8152600401620003a5919062000e2a565b600060405180830381600087803b158015620003c057600080fd5b505af1158015620003d5573d6000803e3d6000fd5b505050508373ffffffffffffffffffffffffffffffffffffffff168573ffffffffffffffffffffffffffffffffffffffff167f2bd4e7820adb831c0d45424aaee309ed6c7db3ed43aa487c518ff065a540357c8560405162000438919062000e2a565b60405180910390a35050505050565b60008054906101000a900473ffffffffffffffffffffffffffffffffffffffff1673ffffffffffffffffffffffffffffffffffffffff163373ffffffffffffffffffffffffffffffffffffffff1614620004d8576040517f08c379a0000000000000000000000000000000000000000000000000000000008152600401620004cf9062000c18565b60405180910390fd5b600083838333604051620004ec9062000682565b620004fb949392919062000e4e565b604051809103906000f08015801562000518573d6000803e3d6000fd5b5090506001819080600181540180825580915050600190039060005260206000200160009091909190916101000a81548173ffffffffffffffffffffffffffffffffffffffff021916908373ffffffffffffffffffffffffffffffffffffffff1602179055508073ffffffffffffffffffffffffffffffffffffffff167f17dd0b5f0975f4651b002ed3b016428bae979f5704d8b2473931b2312185c05a85604051620005c6919062000e2a565b60405180910390a250505050565b60008054906101000a900473ffffffffffffffffffffffffffffffffffffffff1673ffffffffffffffffffffffffffffffffffffffff163373ffffffffffffffffffffffffffffffffffffffff161462000665576040517f08c379a00000000000000000000000000000000000000000000000000000000081526004016200065c9062000c18565b60405180910390fd5b80600260006101000a81548160ff02191690831515021790555050565b6118258062000eb183390190565b6000604051905090565b600080fd5b600080fd5b6000819050919050565b620006b981620006a4565b8114620006c557600080fd5b50565b600081359050620006d981620006ae565b92915050565b600060208284031215620006f857620006f76200069a565b5b60006200070884828501620006c8565b91505092915050565b600073ffffffffffffffffffffffffffffffffffffffff82169050919050565b6000819050919050565b60006200075c62000756620007508462000711565b62000731565b62000711565b9050919050565b600062000770826200073b565b9050919050565b6000620007848262000763565b9050919050565b620007968162000777565b82525050565b6000602082019050620007b360008301846200078b565b92915050565b60008115159050919050565b620007d081620007b9565b82525050565b6000602082019050620007ed6000830184620007c5565b92915050565b6000620008008262000711565b9050919050565b6200081281620007f3565b81146200081e57600080fd5b50565b600081359050620008328162000807565b92915050565b6000602082840312156200085157620008506200069a565b5b6000620008618482850162000821565b91505092915050565b6200087581620007f3565b82525050565b60006020820190506200089260008301846200086a565b92915050565b600080fd5b600080fd5b6000601f19601f8301169050919050565b7f4e487b7100000000000000000000000000000000000000000000000000000000600052604160045260246000fd5b620008ed82620008a2565b810181811067ffffffffffffffff821117156200090f576200090e620008b3565b5b80604052505050565b60006200092462000690565b9050620009328282620008e2565b919050565b600067ffffffffffffffff821115620009555762000954620008b3565b5b6200096082620008a2565b9050602081019050919050565b82818337600083830152505050565b6000620009936200098d8462000937565b62000918565b905082815260208101848484011115620009b257620009b16200089d565b5b620009bf8482856200096d565b509392505050565b600082601f830112620009df57620009de62000898565b5b8135620009f18482602086016200097c565b91505092915050565b60008060006060848603121562000a165762000a156200069a565b5b600062000a268682870162000821565b935050602062000a398682870162000821565b925050604084013567ffffffffffffffff81111562000a5d5762000a5c6200069f565b5b62000a6b86828701620009c7565b9150509250925092565b60008060006060848603121562000a915762000a906200069a565b5b600084013567ffffffffffffffff81111562000ab25762000ab16200069f565b5b62000ac086828701620009c7565b935050602084013567ffffffffffffffff81111562000ae45762000ae36200069f565b5b62000af286828701620009c7565b925050604084013567ffffffffffffffff81111562000b165762000b156200069f565b5b62000b2486828701620009c7565b9150509250925092565b62000b3981620007b9565b811462000b4557600080fd5b50565b60008135905062000b598162000b2e565b92915050565b60006020828403121562000b785762000b776200069a565b5b600062000b888482850162000b48565b91505092915050565b600082825260208201905092915050565b7f4f6e6c7920746865206f776e65722063616e20706572666f726d20746869732060008201527f616374696f6e0000000000000000000000000000000000000000000000000000602082015250565b600062000c0060268362000b91565b915062000c0d8262000ba2565b604082019050919050565b6000602082019050818103600083015262000c338162000bf1565b9050919050565b600081905092915050565b7f446f6e6f723a2000000000000000000000000000000000000000000000000000600082015250565b600062000c7d60078362000c3a565b915062000c8a8262000c45565b600782019050919050565b60008160601b9050919050565b600062000caf8262000c95565b9050919050565b600062000cc38262000ca2565b9050919050565b62000cdf62000cd982620007f3565b62000cb6565b82525050565b7f202d204974656d204465736372697074696f6e3a200000000000000000000000600082015250565b600062000d1d60158362000c3a565b915062000d2a8262000ce5565b601582019050919050565b600081519050919050565b60005b8381101562000d6057808201518184015260208101905062000d43565b60008484015250505050565b600062000d798262000d35565b62000d85818562000c3a565b935062000d9781856020860162000d40565b80840191505092915050565b600062000db08262000c6e565b915062000dbe828562000cca565b60148201915062000dcf8262000d0e565b915062000ddd828462000d6c565b91508190509392505050565b600062000df68262000d35565b62000e02818562000b91565b935062000e1481856020860162000d40565b62000e1f81620008a2565b840191505092915050565b6000602082019050818103600083015262000e46818462000de9565b905092915050565b6000608082019050818103600083015262000e6a818762000de9565b9050818103602083015262000e80818662000de9565b9050818103604083015262000e96818562000de9565b905062000ea760608301846200086a565b9594505050505056fe60806040523480156200001157600080fd5b5060405162001825380380620018258339818101604052810190620000379190620002ca565b8360019081620000489190620005e4565b5082600290816200005a9190620005e4565b5081600390816200006c9190620005e4565b50806000806101000a81548173ffffffffffffffffffffffffffffffffffffffff021916908373ffffffffffffffffffffffffffffffffffffffff1602179055506001600560006101000a81548160ff02191690831515021790555050505050620006cb565b6000604051905090565b600080fd5b600080fd5b600080fd5b600080fd5b6000601f19601f8301169050919050565b7f4e487b7100000000000000000000000000000000000000000000000000000000600052604160045260246000fd5b6200013b82620000f0565b810181811067ffffffffffffffff821117156200015d576200015c62000101565b5b80604052505050565b600062000172620000d2565b905062000180828262000130565b919050565b600067ffffffffffffffff821115620001a357620001a262000101565b5b620001ae82620000f0565b9050602081019050919050565b60005b83811015620001db578082015181840152602081019050620001be565b60008484015250505050565b6000620001fe620001f88462000185565b62000166565b9050828152602081018484840111156200021d576200021c620000eb565b5b6200022a848285620001bb565b509392505050565b600082601f8301126200024a5762000249620000e6565b5b81516200025c848260208601620001e7565b91505092915050565b600073ffffffffffffffffffffffffffffffffffffffff82169050919050565b6000620002928262000265565b9050919050565b620002a48162000285565b8114620002b057600080fd5b50565b600081519050620002c48162000299565b92915050565b60008060008060808587031215620002e757620002e6620000dc565b5b600085015167ffffffffffffffff811115620003085762000307620000e1565b5b620003168782880162000232565b945050602085015167ffffffffffffffff8111156200033a5762000339620000e1565b5b620003488782880162000232565b935050604085015167ffffffffffffffff8111156200036c576200036b620000e1565b5b6200037a8782880162000232565b92505060606200038d87828801620002b3565b91505092959194509250565b600081519050919050565b7f4e487b7100000000000000000000000000000000000000000000000000000000600052602260045260246000fd5b60006002820490506001821680620003ec57607f821691505b602082108103620004025762000401620003a4565b5b50919050565b60008190508160005260206000209050919050565b60006020601f8301049050919050565b600082821b905092915050565b6000600883026200046c7fffffffffffffffffffffffffffffffffffffffffffffffffffffffffffffffff826200042d565b6200047886836200042d565b95508019841693508086168417925050509392505050565b6000819050919050565b6000819050919050565b6000620004c5620004bf620004b98462000490565b6200049a565b62000490565b9050919050565b6000819050919050565b620004e183620004a4565b620004f9620004f082620004cc565b8484546200043a565b825550505050565b600090565b6200051062000501565b6200051d818484620004d6565b505050565b5b8181101562000545576200053960008262000506565b60018101905062000523565b5050565b601f82111562000594576200055e8162000408565b62000569846200041d565b8101602085101562000579578190505b6200059162000588856200041d565b83018262000522565b50505b505050565b600082821c905092915050565b6000620005b96000198460080262000599565b1980831691505092915050565b6000620005d48383620005a6565b9150826002028217905092915050565b620005ef8262000399565b67ffffffffffffffff8111156200060b576200060a62000101565b5b620006178254620003d3565b6200062482828562000549565b600060209050601f8311600181146200065c576000841562000647578287015190505b620006538582620005c6565b865550620006c3565b601f1984166200066c8662000408565b60005b8281101562000696578489015182556001820191506020850194506020810190506200066f565b86831015620006b65784890151620006b2601f891682620005a6565b8355505b6001600288020188555050505b505050505050565b61114a80620006db6000396000f3fe608060405234801561001057600080fd5b506004361061009e5760003560e01c8063863559cf11610066578063863559cf14610137578063ca0cdea814610155578063d7557f1814610185578063de2ed8931461018f578063f8626af8146101ad5761009e565b806306fdde03146100a35780630761164e146100c157806322f3e2d4146100dd578063481c6a75146100fb5780637284e41614610119575b600080fd5b6100ab6101de565b6040516100b89190610867565b60405180910390f35b6100db60048036038101906100d691906109d2565b61026c565b005b6100e561046c565b6040516100f29190610a36565b60405180910390f35b61010361047f565b6040516101109190610a92565b60405180910390f35b6101216104a3565b60405161012e9190610867565b60405180910390f35b61013f610531565b60405161014c9190610867565b60405180910390f35b61016f600480360381019061016a9190610ad9565b6105bf565b60405161017c9190610a36565b60405180910390f35b61018d6105df565b005b610197610705565b6040516101a49190610b1f565b60405180910390f35b6101c760048036038101906101c29190610b66565b61070b565b6040516101d5929190610b93565b60405180910390f35b600180546101eb90610bf2565b80601f016020809104026020016040519081016040528092919081815260200182805461021790610bf2565b80156102645780601f1061023957610100808354040283529160200191610264565b820191906000526020600020905b81548152906001019060200180831161024757829003601f168201915b505050505081565b600560009054906101000a900460ff166102bb576040517f08c379a00000000000000000000000000000000000000000000000000000000081526004016102b290610c6f565b60405180910390fd5b60008151116102ff576040517f08c379a00000000000000000000000000000000000000000000000000000000081526004016102f690610d01565b60405180910390fd5b60006004549050600060405180604001604052803373ffffffffffffffffffffffffffffffffffffffff168152602001848152509050806007600084815260200190815260200160002060008201518160000160006101000a81548173ffffffffffffffffffffffffffffffffffffffff021916908373ffffffffffffffffffffffffffffffffffffffff16021790555060208201518160010190816103a59190610ecd565b509050506001600660003373ffffffffffffffffffffffffffffffffffffffff1673ffffffffffffffffffffffffffffffffffffffff16815260200190815260200160002060006101000a81548160ff0219169083151502179055506004600081548092919061041490610fce565b91905055503373ffffffffffffffffffffffffffffffffffffffff167f4e0003e8905e47174fc8f04d0e185fe54ac6dbbda5d1c598f302ffa6a0c0e8988460405161045f9190610867565b60405180910390a2505050565b600560009054906101000a900460ff1681565b60008054906101000a900473ffffffffffffffffffffffffffffffffffffffff1681565b600280546104b090610bf2565b80601f01602080910402602001604051908101604052809291908181526020018280546104dc90610bf2565b80156105295780601f106104fe57610100808354040283529160200191610529565b820191906000526020600020905b81548152906001019060200180831161050c57829003601f168201915b505050505081565b6003805461053e90610bf2565b80601f016020809104026020016040519081016040528092919081815260200182805461056a90610bf2565b80156105b75780601f1061058c576101008083540402835291602001916105b7565b820191906000526020600020905b81548152906001019060200180831161059a57829003601f168201915b505050505081565b60066020528060005260406000206000915054906101000a900460ff1681565b60008054906101000a900473ffffffffffffffffffffffffffffffffffffffff1673ffffffffffffffffffffffffffffffffffffffff163373ffffffffffffffffffffffffffffffffffffffff161461066d576040517f08c379a000000000000000000000000000000000000000000000000000000000815260040161066490611088565b60405180910390fd5b600560009054906101000a900460ff166106bc576040517f08c379a00000000000000000000000000000000000000000000000000000000081526004016106b3906110f4565b60405180910390fd5b6000600560006101000a81548160ff0219169083151502179055507fb49a509a88f868a6f6fce6bfa9c1e1a7faf4e371b9ee245a8695b03ac90680c460405160405180910390a1565b60045481565b60076020528060005260406000206000915090508060000160009054906101000a900473ffffffffffffffffffffffffffffffffffffffff169080600101805461075490610bf2565b80601f016020809104026020016040519081016040528092919081815260200182805461078090610bf2565b80156107cd5780601f106107a2576101008083540402835291602001916107cd565b820191906000526020600020905b8154815290600101906020018083116107b057829003601f168201915b5050505050905082565b600081519050919050565b600082825260208201905092915050565b60005b838110156108115780820151818401526020810190506107f6565b60008484015250505050565b6000601f19601f8301169050919050565b6000610839826107d7565b61084381856107e2565b93506108538185602086016107f3565b61085c8161081d565b840191505092915050565b60006020820190508181036000830152610881818461082e565b905092915050565b6000604051905090565b600080fd5b600080fd5b600080fd5b600080fd5b7f4e487b7100000000000000000000000000000000000000000000000000000000600052604160045260246000fd5b6108df8261081d565b810181811067ffffffffffffffff821117156108fe576108fd6108a7565b5b80604052505050565b6000610911610889565b905061091d82826108d6565b919050565b600067ffffffffffffffff82111561093d5761093c6108a7565b5b6109468261081d565b9050602081019050919050565b82818337600083830152505050565b600061097561097084610922565b610907565b905082815260208101848484011115610991576109906108a2565b5b61099c848285610953565b509392505050565b600082601f8301126109b9576109b861089d565b5b81356109c9848260208601610962565b91505092915050565b6000602082840312156109e8576109e7610893565b5b600082013567ffffffffffffffff811115610a0657610a05610898565b5b610a12848285016109a4565b91505092915050565b60008115159050919050565b610a3081610a1b565b82525050565b6000602082019050610a4b6000830184610a27565b92915050565b600073ffffffffffffffffffffffffffffffffffffffff82169050919050565b6000610a7c82610a51565b9050919050565b610a8c81610a71565b82525050565b6000602082019050610aa76000830184610a83565b92915050565b610ab681610a71565b8114610ac157600080fd5b50565b600081359050610ad381610aad565b92915050565b600060208284031215610aef57610aee610893565b5b6000610afd84828501610ac4565b91505092915050565b6000819050919050565b610b1981610b06565b82525050565b6000602082019050610b346000830184610b10565b92915050565b610b4381610b06565b8114610b4e57600080fd5b50565b600081359050610b6081610b3a565b92915050565b600060208284031215610b7c57610b7b610893565b5b6000610b8a84828501610b51565b91505092915050565b6000604082019050610ba86000830185610a83565b8181036020830152610bba818461082e565b90509392505050565b7f4e487b7100000000000000000000000000000000000000000000000000000000600052602260045260246000fd5b60006002820490506001821680610c0a57607f821691505b602082108103610c1d57610c1c610bc3565b5b50919050565b7f43616d706169676e206973206e6f742061637469766500000000000000000000600082015250565b6000610c596016836107e2565b9150610c6482610c23565b602082019050919050565b60006020820190508181036000830152610c8881610c4c565b9050919050565b7f4974656d206465736372697074696f6e206d7573742062652070726f7669646560008201527f6400000000000000000000000000000000000000000000000000000000000000602082015250565b6000610ceb6021836107e2565b9150610cf682610c8f565b604082019050919050565b60006020820190508181036000830152610d1a81610cde565b9050919050565b60008190508160005260206000209050919050565b60006020601f8301049050919050565b600082821b905092915050565b600060088302610d837fffffffffffffffffffffffffffffffffffffffffffffffffffffffffffffffff82610d46565b610d8d8683610d46565b95508019841693508086168417925050509392505050565b6000819050919050565b6000610dca610dc5610dc084610b06565b610da5565b610b06565b9050919050565b6000819050919050565b610de483610daf565b610df8610df082610dd1565b848454610d53565b825550505050565b600090565b610e0d610e00565b610e18818484610ddb565b505050565b5b81811015610e3c57610e31600082610e05565b600181019050610e1e565b5050565b601f821115610e8157610e5281610d21565b610e5b84610d36565b81016020851015610e6a578190505b610e7e610e7685610d36565b830182610e1d565b50505b505050565b600082821c905092915050565b6000610ea460001984600802610e86565b1980831691505092915050565b6000610ebd8383610e93565b9150826002028217905092915050565b610ed6826107d7565b67ffffffffffffffff811115610eef57610eee6108a7565b5b610ef98254610bf2565b610f04828285610e40565b600060209050601f831160018114610f375760008415610f25578287015190505b610f2f8582610eb1565b865550610f97565b601f198416610f4586610d21565b60005b82811015610f6d57848901518255600182019150602085019450602081019050610f48565b86831015610f8a5784890151610f86601f891682610e93565b8355505b6001600288020188555050505b505050505050565b7f4e487b7100000000000000000000000000000000000000000000000000000000600052601160045260246000fd5b6000610fd982610b06565b91507fffffffffffffffffffffffffffffffffffffffffffffffffffffffffffffffff820361100b5761100a610f9f565b5b600182019050919050565b7f4f6e6c79207468652063616d706169676e206d616e616765722063616e20706560008201527f72666f726d207468697320616374696f6e000000000000000000000000000000602082015250565b60006110726031836107e2565b915061107d82611016565b604082019050919050565b600060208201905081810360008301526110a181611065565b9050919050565b7f43616d706169676e20697320616c726561647920636c6f736564000000000000600082015250565b60006110de601a836107e2565b91506110e9826110a8565b602082019050919050565b6000602082019050818103600083015261110d816110d1565b905091905056fea2646970667358221220213a84490303fe9470a7dfc9bd61a2be7d9e8cece8d554861e4dc820f9a027ea64736f6c63430008140033a264697066735822122067fcb11c134c5db670f5c7cc720e21d510ddbb660a669218f759b8c2c0ac026c64736f6c63430008140033",
  "linkReferences": {},
  "deployedLinkReferences": {}
}