{
  "_format": "hh-sol-artifact-1",
  "contractName": "Donation",
  "sourceName": "src/contracts/Donation.sol",
  "abi": [
    {
      "inputs": [
        {
          "internalType": "address",
          "name": "_charityPlatformAddress",
          "type": "address"
        }
      ],
      "stateMutability": "nonpayable",
      "type": "constructor"
    },
    {
      "anonymous": false,
      "inputs": [
        {
          "indexed": true,
          "internalType": "address",
          "name": "campaignAddress",
          "type": "address"
        },
        {
          "indexed": true,
          "internalType": "address",
          "name": "donor",
          "type": "address"
        },
        {
          "indexed": false,
          "internalType": "string",
          "name": "itemDescription",
          "type": "string"
        },
        {
          "indexed": false,
          "internalType": "string",
          "name": "ipfsHash",
          "type": "string"
        }
      ],
      "name": "DonationMade",
      "type": "event"
    },
    {
      "inputs": [],
      "name": "charityPlatform",
      "outputs": [
        {
          "internalType": "contract HemaHope",
          "name": "",
          "type": "address"
        }
      ],
      "stateMutability": "view",
      "type": "function"
    },
    {
      "inputs": [
        {
          "internalType": "address",
          "name": "campaignAddress",
          "type": "address"
        },
        {
          "internalType": "address",
          "name": "donor",
          "type": "address"
        },
        {
          "internalType": "string",
          "name": "itemDescription",
          "type": "string"
        },
        {
          "internalType": "string",
          "name": "ipfsHash",
          "type": "string"
        }
      ],
      "name": "donatePhysicalItem",
      "outputs": [],
      "stateMutability": "nonpayable",
      "type": "function"
    },
    {
      "inputs": [],
      "name": "owner",
      "outputs": [
        {
          "internalType": "address",
          "name": "",
          "type": "address"
        }
      ],
      "stateMutability": "view",
      "type": "function"
    },
    {
      "inputs": [
        {
          "internalType": "address",
          "name": "_charityPlatformAddress",
          "type": "address"
        }
      ],
      "name": "updateCharityPlatform",
      "outputs": [],
      "stateMutability": "nonpayable",
      "type": "function"
    }
  ],
  "bytecode": "0x608060405234801561001057600080fd5b506040516106c03803806106c083398101604081905261002f9161005d565b600080546001600160a01b039092166001600160a01b0319928316179055600180549091163317905561008d565b60006020828403121561006f57600080fd5b81516001600160a01b038116811461008657600080fd5b9392505050565b6106248061009c6000396000f3fe608060405234801561001057600080fd5b506004361061004c5760003560e01c80632b4be9da146100515780638da5cb5b146100805780638fb83b9914610093578063a73bdcf2146100a8575b600080fd5b600054610064906001600160a01b031681565b6040516001600160a01b03909116815260200160405180910390f35b600154610064906001600160a01b031681565b6100a66100a13660046103b5565b6100bb565b005b6100a66100b636600461047a565b610166565b6001546001600160a01b031633146100ee5760405162461bcd60e51b81526004016100e5906104ff565b60405180910390fd5b6001600160a01b0381166101445760405162461bcd60e51b815260206004820152601f60248201527f496e76616c69642043686172697479506c6174666f726d20616464726573730060448201526064016100e5565b600080546001600160a01b0319166001600160a01b0392909216919091179055565b6001546001600160a01b031633146101905760405162461bcd60e51b81526004016100e5906104ff565b6001600160a01b0384166101e65760405162461bcd60e51b815260206004820152601860248201527f496e76616c69642063616d706169676e2061646472657373000000000000000060448201526064016100e5565b6001600160a01b0383166102345760405162461bcd60e51b8152602060048201526015602482015274496e76616c696420646f6e6f72206164647265737360581b60448201526064016100e5565b600082511161028f5760405162461bcd60e51b815260206004820152602160248201527f4974656d206465736372697074696f6e206d7573742062652070726f766964656044820152601960fa1b60648201526084016100e5565b60008151116102e05760405162461bcd60e51b815260206004820152601a60248201527f495046532068617368206d7573742062652070726f766964656400000000000060448201526064016100e5565b6000546040516323d25e8560e21b81526001600160a01b0390911690638f497a149061031490879087908790600401610594565b600060405180830381600087803b15801561032e57600080fd5b505af1158015610342573d6000803e3d6000fd5b50505050826001600160a01b0316846001600160a01b03167f28a43e98ce279867262b1254b8063c77ac156a94a77116cc1596ef863ce90e9e848460405161038b9291906105c9565b60405180910390a350505050565b80356001600160a01b03811681146103b057600080fd5b919050565b6000602082840312156103c757600080fd5b6103d082610399565b9392505050565b634e487b7160e01b600052604160045260246000fd5b600082601f8301126103fe57600080fd5b813567ffffffffffffffff80821115610419576104196103d7565b604051601f8301601f19908116603f01168101908282118183101715610441576104416103d7565b8160405283815286602085880101111561045a57600080fd5b836020870160208301376000602085830101528094505050505092915050565b6000806000806080858703121561049057600080fd5b61049985610399565b93506104a760208601610399565b9250604085013567ffffffffffffffff808211156104c457600080fd5b6104d0888389016103ed565b935060608701359150808211156104e657600080fd5b506104f3878288016103ed565b91505092959194509250565b6020808252602f908201527f4f6e6c792074686520636f6e7472616374206f776e65722063616e207065726660408201526e37b936903a3434b99030b1ba34b7b760891b606082015260800190565b6000815180845260005b8181101561057457602081850181015186830182015201610558565b506000602082860101526020601f19601f83011685010191505092915050565b6001600160a01b038481168252831660208201526060604082018190526000906105c09083018461054e565b95945050505050565b6040815260006105dc604083018561054e565b82810360208401526105c0818561054e56fea2646970667358221220512d8b14e04511a2faa541378b89b3caa4c8ae93bebcaaacc0eccd25ad4dbdc464736f6c63430008140033",
  "linkReferences": {},
  "deployedLinkReferences": {}
}